{
  "_format": "hh-sol-artifact-1",
  "contractName": "EmigroRouter",
  "sourceName": "contracts/EmigroRouter.sol",
  "abi": [
    {
      "inputs": [],
      "name": "InvalidInitialization",
      "type": "error"
    },
    {
      "inputs": [],
      "name": "NotInitializing",
      "type": "error"
    },
    {
      "inputs": [
        {
          "internalType": "address",
          "name": "owner",
          "type": "address"
        }
      ],
      "name": "OwnableInvalidOwner",
      "type": "error"
    },
    {
      "inputs": [
        {
          "internalType": "address",
          "name": "account",
          "type": "address"
        }
      ],
      "name": "OwnableUnauthorizedAccount",
      "type": "error"
    },
    {
      "inputs": [],
      "name": "ReentrancyGuardReentrantCall",
      "type": "error"
    },
    {
      "inputs": [
        {
          "internalType": "address",
          "name": "token",
          "type": "address"
        }
      ],
      "name": "SafeERC20FailedOperation",
      "type": "error"
    },
    {
      "anonymous": false,
      "inputs": [
        {
          "indexed": false,
          "internalType": "address",
          "name": "adapter",
          "type": "address"
        },
        {
          "indexed": false,
          "internalType": "bool",
          "name": "approved",
          "type": "bool"
        }
      ],
      "name": "AdapterWhitelisted",
      "type": "event"
    },
    {
      "anonymous": false,
      "inputs": [
        {
          "indexed": true,
          "internalType": "address",
          "name": "to",
          "type": "address"
        },
        {
          "indexed": false,
          "internalType": "uint256",
          "name": "amount",
          "type": "uint256"
        }
      ],
      "name": "EmergencyWithdrawETH",
      "type": "event"
    },
    {
      "anonymous": false,
      "inputs": [
        {
          "indexed": true,
          "internalType": "address",
          "name": "token",
          "type": "address"
        },
        {
          "indexed": true,
          "internalType": "address",
          "name": "to",
          "type": "address"
        },
        {
          "indexed": false,
          "internalType": "uint256",
          "name": "amount",
          "type": "uint256"
        }
      ],
      "name": "EmergencyWithdrawToken",
      "type": "event"
    },
    {
      "anonymous": false,
      "inputs": [
        {
          "indexed": true,
          "internalType": "address",
          "name": "wallet",
          "type": "address"
        },
        {
          "indexed": false,
          "internalType": "bool",
          "name": "isExempt",
          "type": "bool"
        }
      ],
      "name": "FeeExemptSet",
      "type": "event"
    },
    {
      "anonymous": false,
      "inputs": [
        {
          "indexed": false,
          "internalType": "address",
          "name": "newReceiver",
          "type": "address"
        }
      ],
      "name": "FeeReceiverUpdated",
      "type": "event"
    },
    {
      "anonymous": false,
      "inputs": [
        {
          "indexed": false,
          "internalType": "uint256",
          "name": "newFeeBps",
          "type": "uint256"
        }
      ],
      "name": "FeeUpdated",
      "type": "event"
    },
    {
      "anonymous": false,
      "inputs": [
        {
          "indexed": false,
          "internalType": "uint64",
          "name": "version",
          "type": "uint64"
        }
      ],
      "name": "Initialized",
      "type": "event"
    },
    {
      "anonymous": false,
      "inputs": [
        {
          "indexed": true,
          "internalType": "address",
          "name": "previousOwner",
          "type": "address"
        },
        {
          "indexed": true,
          "internalType": "address",
          "name": "newOwner",
          "type": "address"
        }
      ],
      "name": "OwnershipTransferred",
      "type": "event"
    },
    {
      "anonymous": false,
      "inputs": [
        {
          "indexed": true,
          "internalType": "address",
          "name": "token",
          "type": "address"
        },
        {
          "indexed": true,
          "internalType": "address",
          "name": "user",
          "type": "address"
        },
        {
          "indexed": false,
          "internalType": "uint256",
          "name": "amount",
          "type": "uint256"
        }
      ],
      "name": "RefundIssued",
      "type": "event"
    },
    {
      "anonymous": false,
      "inputs": [
        {
          "indexed": true,
          "internalType": "address",
          "name": "tokenIn",
          "type": "address"
        },
        {
          "indexed": true,
          "internalType": "address",
          "name": "tokenOut",
          "type": "address"
        },
        {
          "indexed": false,
          "internalType": "uint256",
          "name": "amountIn",
          "type": "uint256"
        },
        {
          "indexed": false,
          "internalType": "uint256",
          "name": "amountOut",
          "type": "uint256"
        },
        {
          "indexed": true,
          "internalType": "address",
          "name": "adapter",
          "type": "address"
        },
        {
          "indexed": false,
          "internalType": "address",
          "name": "recipient",
          "type": "address"
        }
      ],
      "name": "SwapPerformed",
      "type": "event"
    },
    {
      "inputs": [
        {
          "internalType": "bytes32",
          "name": "",
          "type": "bytes32"
        }
      ],
      "name": "adapterForPath",
      "outputs": [
        {
          "internalType": "address",
          "name": "",
          "type": "address"
        }
      ],
      "stateMutability": "view",
      "type": "function"
    },
    {
      "inputs": [
        {
          "internalType": "address",
          "name": "",
          "type": "address"
        }
      ],
      "name": "approvedAdapters",
      "outputs": [
        {
          "internalType": "bool",
          "name": "",
          "type": "bool"
        }
      ],
      "stateMutability": "view",
      "type": "function"
    },
    {
      "inputs": [],
      "name": "defaultDeadline",
      "outputs": [
        {
          "internalType": "uint256",
          "name": "",
          "type": "uint256"
        }
      ],
      "stateMutability": "view",
      "type": "function"
    },
    {
      "inputs": [
        {
          "internalType": "address",
          "name": "to",
          "type": "address"
        }
      ],
      "name": "emergencyWithdrawETH",
      "outputs": [],
      "stateMutability": "nonpayable",
      "type": "function"
    },
    {
      "inputs": [
        {
          "internalType": "address",
          "name": "token",
          "type": "address"
        },
        {
          "internalType": "address",
          "name": "to",
          "type": "address"
        }
      ],
      "name": "emergencyWithdrawToken",
      "outputs": [],
      "stateMutability": "nonpayable",
      "type": "function"
    },
    {
      "inputs": [],
      "name": "feeBps",
      "outputs": [
        {
          "internalType": "uint256",
          "name": "",
          "type": "uint256"
        }
      ],
      "stateMutability": "view",
      "type": "function"
    },
    {
      "inputs": [
        {
          "internalType": "address",
          "name": "",
          "type": "address"
        }
      ],
      "name": "feeExempt",
      "outputs": [
        {
          "internalType": "bool",
          "name": "",
          "type": "bool"
        }
      ],
      "stateMutability": "view",
      "type": "function"
    },
    {
      "inputs": [],
      "name": "feeReceiver",
      "outputs": [
        {
          "internalType": "address",
          "name": "",
          "type": "address"
        }
      ],
      "stateMutability": "view",
      "type": "function"
    },
    {
      "inputs": [],
      "name": "initialize",
      "outputs": [],
      "stateMutability": "nonpayable",
      "type": "function"
    },
    {
      "inputs": [],
      "name": "owner",
      "outputs": [
        {
          "internalType": "address",
          "name": "",
          "type": "address"
        }
      ],
      "stateMutability": "view",
      "type": "function"
    },
    {
      "inputs": [],
      "name": "renounceOwnership",
      "outputs": [],
      "stateMutability": "nonpayable",
      "type": "function"
    },
    {
      "inputs": [
        {
          "internalType": "address",
          "name": "adapter",
          "type": "address"
        },
        {
          "internalType": "bool",
          "name": "approved",
          "type": "bool"
        }
      ],
      "name": "setAdapterApproval",
      "outputs": [],
      "stateMutability": "nonpayable",
      "type": "function"
    },
    {
      "inputs": [
        {
          "internalType": "uint256",
          "name": "seconds_",
          "type": "uint256"
        }
      ],
      "name": "setDefaultDeadline",
      "outputs": [],
      "stateMutability": "nonpayable",
      "type": "function"
    },
    {
      "inputs": [
        {
          "internalType": "address",
          "name": "wallet",
          "type": "address"
        },
        {
          "internalType": "bool",
          "name": "exempt",
          "type": "bool"
        }
      ],
      "name": "setFeeExempt",
      "outputs": [],
      "stateMutability": "nonpayable",
      "type": "function"
    },
    {
      "inputs": [
        {
          "internalType": "address",
          "name": "adapter",
          "type": "address"
        },
        {
          "internalType": "address",
          "name": "tokenIn",
          "type": "address"
        },
        {
          "internalType": "address",
          "name": "tokenOut",
          "type": "address"
        },
        {
          "internalType": "uint256",
          "name": "amountIn",
          "type": "uint256"
        },
        {
          "internalType": "uint256",
          "name": "minAmountOut",
          "type": "uint256"
        },
        {
          "internalType": "address",
          "name": "recipient",
          "type": "address"
        },
        {
          "internalType": "bytes",
          "name": "data",
          "type": "bytes"
        }
      ],
      "name": "swapExactInputVia",
      "outputs": [
        {
          "internalType": "uint256",
          "name": "amountOut",
          "type": "uint256"
        }
      ],
      "stateMutability": "payable",
      "type": "function"
    },
    {
      "inputs": [
        {
          "internalType": "address",
          "name": "adapter",
          "type": "address"
        },
        {
          "internalType": "address",
          "name": "tokenIn",
          "type": "address"
        },
        {
          "internalType": "address",
          "name": "tokenOut",
          "type": "address"
        },
        {
          "internalType": "uint256",
          "name": "maxAmountIn",
          "type": "uint256"
        },
        {
          "internalType": "uint256",
          "name": "amountOut",
          "type": "uint256"
        },
        {
          "internalType": "address",
          "name": "recipient",
          "type": "address"
        },
        {
          "internalType": "bytes",
          "name": "data",
          "type": "bytes"
        }
      ],
      "name": "swapExactOutputVia",
      "outputs": [
        {
          "internalType": "uint256",
          "name": "amountInUsed",
          "type": "uint256"
        }
      ],
      "stateMutability": "payable",
      "type": "function"
    },
    {
      "inputs": [
        {
          "internalType": "address",
          "name": "newOwner",
          "type": "address"
        }
      ],
      "name": "transferOwnership",
      "outputs": [],
      "stateMutability": "nonpayable",
      "type": "function"
    },
    {
      "inputs": [
        {
          "internalType": "uint256",
          "name": "newFeeBps",
          "type": "uint256"
        }
      ],
      "name": "updateFee",
      "outputs": [],
      "stateMutability": "nonpayable",
      "type": "function"
    },
    {
      "inputs": [
        {
          "internalType": "address",
          "name": "newReceiver",
          "type": "address"
        }
      ],
      "name": "updateFeeReceiver",
      "outputs": [],
      "stateMutability": "nonpayable",
      "type": "function"
    },
    {
      "stateMutability": "payable",
      "type": "receive"
    }
  ],
  "bytecode": "0x608060405234801561001057600080fd5b50612514806100206000396000f3fe6080604052600436106101185760003560e01c80638da5cb5b116100a0578063c69bebe411610064578063c69bebe414610389578063db5464d1146103b2578063ef9921f1146103e2578063f2fde38b1461040b578063f6cd4c00146104345761011f565b80638da5cb5b146102a45780638ebfc796146102cf5780639012c4a8146102f8578063a1f5fb4214610321578063b3f006741461035e5761011f565b80635abbc712116100e75780635abbc712146101e5578063682458bd14610222578063715018a61461024b5780637b73c2ef146102625780638129fc1c1461028d5761011f565b8063214ff4591461012457806324a9d8531461014d578063308fc2d914610178578063398daa85146101a85761011f565b3661011f57005b600080fd5b34801561013057600080fd5b5061014b60048036038101906101469190611a94565b61045d565b005b34801561015957600080fd5b506101626105ac565b60405161016f9190611ada565b60405180910390f35b610192600480360381019061018d9190611b86565b6105b2565b60405161019f9190611ada565b60405180910390f35b3480156101b457600080fd5b506101cf60048036038101906101ca9190611a94565b6106fe565b6040516101dc9190611c63565b60405180910390f35b3480156101f157600080fd5b5061020c60048036038101906102079190611a94565b61071e565b6040516102199190611c63565b60405180910390f35b34801561022e57600080fd5b5061024960048036038101906102449190611c7e565b61073e565b005b34801561025757600080fd5b5061026061089c565b005b34801561026e57600080fd5b506102776108b0565b6040516102849190611ada565b60405180910390f35b34801561029957600080fd5b506102a26108b6565b005b3480156102b057600080fd5b506102b9610bf6565b6040516102c69190611ccd565b60405180910390f35b3480156102db57600080fd5b506102f660048036038101906102f19190611d14565b610c2e565b005b34801561030457600080fd5b5061031f600480360381019061031a9190611d54565b610cdf565b005b34801561032d57600080fd5b5061034860048036038101906103439190611db7565b610d6d565b6040516103559190611ccd565b60405180910390f35b34801561036a57600080fd5b50610373610da0565b6040516103809190611ccd565b60405180910390f35b34801561039557600080fd5b506103b060048036038101906103ab9190611a94565b610dc6565b005b6103cc60048036038101906103c79190611b86565b610eb8565b6040516103d99190611ada565b60405180910390f35b3480156103ee57600080fd5b5061040960048036038101906104049190611d54565b611004565b005b34801561041757600080fd5b50610432600480360381019061042d9190611a94565b611016565b005b34801561044057600080fd5b5061045b60048036038101906104569190611d14565b61109c565b005b6104656111a7565b6000479050600081116104ad576040517f08c379a00000000000000000000000000000000000000000000000000000000081526004016104a490611e41565b60405180910390fd5b60008273ffffffffffffffffffffffffffffffffffffffff16826040516104d390611e92565b60006040518083038185875af1925050503d8060008114610510576040519150601f19603f3d011682016040523d82523d6000602084013e610515565b606091505b5050905080610559576040517f08c379a000000000000000000000000000000000000000000000000000000000815260040161055090611ef3565b60405180910390fd5b8273ffffffffffffffffffffffffffffffffffffffff167f20f907b58305c7b76035bc03b26f32b1c4f6560f96be6f3bb54c5c848a2d4ddd8360405161059f9190611ada565b60405180910390a2505050565b60045481565b60006105bc61122e565b6105c589611285565b60006105d2893389611383565b90506105df898b8361147a565b8973ffffffffffffffffffffffffffffffffffffffff1663e854bac38a8a848a8a8a8a6040518863ffffffff1660e01b81526004016106249796959493929190611f71565b6020604051808303816000875af1158015610643573d6000803e3d6000fd5b505050506040513d601f19601f820116820180604052508101906106679190611ff0565b91508973ffffffffffffffffffffffffffffffffffffffff168873ffffffffffffffffffffffffffffffffffffffff168a73ffffffffffffffffffffffffffffffffffffffff167f0b7591687141340b266af41d81445c85b8d9477cb8af64cda2047a1a4fc49b6a84868a6040516106e19392919061201d565b60405180910390a4506106f26115d5565b98975050505050505050565b60016020528060005260406000206000915054906101000a900460ff1681565b60026020528060005260406000206000915054906101000a900460ff1681565b6107466111a7565b60008273ffffffffffffffffffffffffffffffffffffffff166370a08231306040518263ffffffff1660e01b81526004016107819190611ccd565b602060405180830381865afa15801561079e573d6000803e3d6000fd5b505050506040513d601f19601f820116820180604052508101906107c29190611ff0565b905060008111610807576040517f08c379a00000000000000000000000000000000000000000000000000000000081526004016107fe906120a0565b60405180910390fd5b61083282828573ffffffffffffffffffffffffffffffffffffffff166115ee9092919063ffffffff16565b8173ffffffffffffffffffffffffffffffffffffffff168373ffffffffffffffffffffffffffffffffffffffff167fda0612d7ca9ff90ca7143a6021ba8938994f8d045b2834ae585fd07b27ea697c8360405161088f9190611ada565b60405180910390a3505050565b6108a46111a7565b6108ae600061166d565b565b60035481565b60006108c0611744565b905060008160000160089054906101000a900460ff1615905060008260000160009054906101000a900467ffffffffffffffff1690506000808267ffffffffffffffff1614801561090e5750825b9050600060018367ffffffffffffffff16148015610943575060003073ffffffffffffffffffffffffffffffffffffffff163b145b905081158015610951575080155b15610988576040517ff92ee8a900000000000000000000000000000000000000000000000000000000815260040160405180910390fd5b60018560000160006101000a81548167ffffffffffffffff021916908367ffffffffffffffff16021790555083156109d85760018560000160086101000a81548160ff0219169083151502179055505b6109e133611758565b6109e961176c565b61012c6003819055506032600481905550733543653a29f9dc92188c2a68a1e847f8e21f9772600560006101000a81548173ffffffffffffffffffffffffffffffffffffffff021916908373ffffffffffffffffffffffffffffffffffffffff160217905550600160026000731b9042f6e862e20bb653f5c1ead8ab679ee73fab73ffffffffffffffffffffffffffffffffffffffff1673ffffffffffffffffffffffffffffffffffffffff16815260200190815260200160002060006101000a81548160ff021916908315150217905550600160026000734fbaa929d8eb386fabd1144c88f2fd63a39379ea73ffffffffffffffffffffffffffffffffffffffff1673ffffffffffffffffffffffffffffffffffffffff16815260200190815260200160002060006101000a81548160ff021916908315150217905550600160026000731a9b2b13e4d70c78406c55a6aa27c6bd9b96247073ffffffffffffffffffffffffffffffffffffffff1673ffffffffffffffffffffffffffffffffffffffff16815260200190815260200160002060006101000a81548160ff0219169083151502179055508315610bef5760008560000160086101000a81548160ff0219169083151502179055507fc7f505b2f371ae2175ee4913f4499e1f2633a7b5936321eed1cdaeb6115181d26001604051610be69190612119565b60405180910390a15b5050505050565b600080610c0161177e565b90508060000160009054906101000a900473ffffffffffffffffffffffffffffffffffffffff1691505090565b610c366111a7565b80600160008473ffffffffffffffffffffffffffffffffffffffff1673ffffffffffffffffffffffffffffffffffffffff16815260200190815260200160002060006101000a81548160ff0219169083151502179055508173ffffffffffffffffffffffffffffffffffffffff167f5a8cf666a272afd6dec6788d33967c676fffa92e289eee1b38172982c4b4914d82604051610cd39190611c63565b60405180910390a25050565b610ce76111a7565b6103e8811115610d2c576040517f08c379a0000000000000000000000000000000000000000000000000000000008152600401610d2390612180565b60405180910390fd5b806004819055507f8c4d35e54a3f2ef1134138fd8ea3daee6a3c89e10d2665996babdf70261e2c7681604051610d629190611ada565b60405180910390a150565b60006020528060005260406000206000915054906101000a900473ffffffffffffffffffffffffffffffffffffffff1681565b600560009054906101000a900473ffffffffffffffffffffffffffffffffffffffff1681565b610dce6111a7565b600073ffffffffffffffffffffffffffffffffffffffff168173ffffffffffffffffffffffffffffffffffffffff1603610e3d576040517f08c379a0000000000000000000000000000000000000000000000000000000008152600401610e34906121ec565b60405180910390fd5b80600560006101000a81548173ffffffffffffffffffffffffffffffffffffffff021916908373ffffffffffffffffffffffffffffffffffffffff1602179055507f27aae5db36d94179909d019ae0b1ac7c16d96d953148f63c0f6a0a9c8ead79ee81604051610ead9190611ccd565b60405180910390a150565b6000610ec261122e565b610ecb89611285565b6000610ed8893389611383565b9050610ee5898b8361147a565b8973ffffffffffffffffffffffffffffffffffffffff1663024984128a8a848a8a8a8a6040518863ffffffff1660e01b8152600401610f2a9796959493929190611f71565b6020604051808303816000875af1158015610f49573d6000803e3d6000fd5b505050506040513d601f19601f82011682018060405250810190610f6d9190611ff0565b91508973ffffffffffffffffffffffffffffffffffffffff168873ffffffffffffffffffffffffffffffffffffffff168a73ffffffffffffffffffffffffffffffffffffffff167f0b7591687141340b266af41d81445c85b8d9477cb8af64cda2047a1a4fc49b6a858a8a604051610fe79392919061201d565b60405180910390a450610ff86115d5565b98975050505050505050565b61100c6111a7565b8060038190555050565b61101e6111a7565b600073ffffffffffffffffffffffffffffffffffffffff168173ffffffffffffffffffffffffffffffffffffffff16036110905760006040517f1e4fbdf70000000000000000000000000000000000000000000000000000000081526004016110879190611ccd565b60405180910390fd5b6110998161166d565b50565b6110a46111a7565b600073ffffffffffffffffffffffffffffffffffffffff168273ffffffffffffffffffffffffffffffffffffffff1603611113576040517f08c379a000000000000000000000000000000000000000000000000000000000815260040161110a906121ec565b60405180910390fd5b80600260008473ffffffffffffffffffffffffffffffffffffffff1673ffffffffffffffffffffffffffffffffffffffff16815260200190815260200160002060006101000a81548160ff0219169083151502179055507f3cece36ac6216147f57b10bb30975f82b18b8b290a7925c322277e684afcce4a828260405161119b92919061220c565b60405180910390a15050565b6111af6117a6565b73ffffffffffffffffffffffffffffffffffffffff166111cd610bf6565b73ffffffffffffffffffffffffffffffffffffffff161461122c576111f06117a6565b6040517f118cdaa70000000000000000000000000000000000000000000000000000000081526004016112239190611ccd565b60405180910390fd5b565b60006112386117ae565b90506002816000015403611278576040517f3ee5aeb500000000000000000000000000000000000000000000000000000000815260040160405180910390fd5b6002816000018190555050565b600073ffffffffffffffffffffffffffffffffffffffff168173ffffffffffffffffffffffffffffffffffffffff16036112f4576040517f08c379a00000000000000000000000000000000000000000000000000000000081526004016112eb90612281565b60405180910390fd5b600260008273ffffffffffffffffffffffffffffffffffffffff1673ffffffffffffffffffffffffffffffffffffffff16815260200190815260200160002060009054906101000a900460ff16611380576040517f08c379a0000000000000000000000000000000000000000000000000000000008152600401611377906122ed565b60405180910390fd5b50565b60008060045414806113de5750600160008473ffffffffffffffffffffffffffffffffffffffff1673ffffffffffffffffffffffffffffffffffffffff16815260200190815260200160002060009054906101000a900460ff165b156113eb57819050611473565b6000612710600454846113fe919061233c565b61140891906123ad565b9050808361141691906123de565b915060008111156114715761147084600560009054906101000a900473ffffffffffffffffffffffffffffffffffffffff16838873ffffffffffffffffffffffffffffffffffffffff166117d6909392919063ffffffff16565b5b505b9392505050565b600073ffffffffffffffffffffffffffffffffffffffff168373ffffffffffffffffffffffffffffffffffffffff16036115a2578034146114f0576040517f08c379a00000000000000000000000000000000000000000000000000000000081526004016114e79061245e565b60405180910390fd5b60008273ffffffffffffffffffffffffffffffffffffffff168260405161151690611e92565b60006040518083038185875af1925050503d8060008114611553576040519150601f19603f3d011682016040523d82523d6000602084013e611558565b606091505b505090508061159c576040517f08c379a000000000000000000000000000000000000000000000000000000000815260040161159390611ef3565b60405180910390fd5b506115d0565b6115cf3383838673ffffffffffffffffffffffffffffffffffffffff166117d6909392919063ffffffff16565b5b505050565b60006115df6117ae565b90506001816000018190555050565b611668838473ffffffffffffffffffffffffffffffffffffffff1663a9059cbb858560405160240161162192919061247e565b604051602081830303815290604052915060e01b6020820180517bffffffffffffffffffffffffffffffffffffffffffffffffffffffff8381831617835250505050611858565b505050565b600061167761177e565b905060008160000160009054906101000a900473ffffffffffffffffffffffffffffffffffffffff169050828260000160006101000a81548173ffffffffffffffffffffffffffffffffffffffff021916908373ffffffffffffffffffffffffffffffffffffffff1602179055508273ffffffffffffffffffffffffffffffffffffffff168173ffffffffffffffffffffffffffffffffffffffff167f8be0079c531659141344cd1fd0a4f28419497f9722a3daafe3b4186f6b6457e060405160405180910390a3505050565b60008061174f6118fa565b90508091505090565b611760611925565b61176981611965565b50565b611774611925565b61177c6119eb565b565b60007f9016d09d72d40fdae2fd8ceac6b6234c7706214fd39c1cd1e609a0528c199300905090565b600033905090565b60007f9b779b17422d0df92223018b32b4d1fa46e071723d6817e2486d003becc55f00905090565b611852848573ffffffffffffffffffffffffffffffffffffffff166323b872dd86868660405160240161180b939291906124a7565b604051602081830303815290604052915060e01b6020820180517bffffffffffffffffffffffffffffffffffffffffffffffffffffffff8381831617835250505050611858565b50505050565b600080602060008451602086016000885af18061187b576040513d6000823e3d81fd5b3d9250600051915050600082146118965760018114156118b2565b60008473ffffffffffffffffffffffffffffffffffffffff163b145b156118f457836040517f5274afe70000000000000000000000000000000000000000000000000000000081526004016118eb9190611ccd565b60405180910390fd5b50505050565b60007ff0c57e16840df040f15088dc2f81fe391c3923bec73e23a9662efc9c229c6a0060001b905090565b61192d611a0c565b611963576040517fd7e6bcf800000000000000000000000000000000000000000000000000000000815260040160405180910390fd5b565b61196d611925565b600073ffffffffffffffffffffffffffffffffffffffff168173ffffffffffffffffffffffffffffffffffffffff16036119df5760006040517f1e4fbdf70000000000000000000000000000000000000000000000000000000081526004016119d69190611ccd565b60405180910390fd5b6119e88161166d565b50565b6119f3611925565b60006119fd6117ae565b90506001816000018190555050565b6000611a16611744565b60000160089054906101000a900460ff16905090565b600080fd5b600080fd5b600073ffffffffffffffffffffffffffffffffffffffff82169050919050565b6000611a6182611a36565b9050919050565b611a7181611a56565b8114611a7c57600080fd5b50565b600081359050611a8e81611a68565b92915050565b600060208284031215611aaa57611aa9611a2c565b5b6000611ab884828501611a7f565b91505092915050565b6000819050919050565b611ad481611ac1565b82525050565b6000602082019050611aef6000830184611acb565b92915050565b611afe81611ac1565b8114611b0957600080fd5b50565b600081359050611b1b81611af5565b92915050565b600080fd5b600080fd5b600080fd5b60008083601f840112611b4657611b45611b21565b5b8235905067ffffffffffffffff811115611b6357611b62611b26565b5b602083019150836001820283011115611b7f57611b7e611b2b565b5b9250929050565b60008060008060008060008060e0898b031215611ba657611ba5611a2c565b5b6000611bb48b828c01611a7f565b9850506020611bc58b828c01611a7f565b9750506040611bd68b828c01611a7f565b9650506060611be78b828c01611b0c565b9550506080611bf88b828c01611b0c565b94505060a0611c098b828c01611a7f565b93505060c089013567ffffffffffffffff811115611c2a57611c29611a31565b5b611c368b828c01611b30565b92509250509295985092959890939650565b60008115159050919050565b611c5d81611c48565b82525050565b6000602082019050611c786000830184611c54565b92915050565b60008060408385031215611c9557611c94611a2c565b5b6000611ca385828601611a7f565b9250506020611cb485828601611a7f565b9150509250929050565b611cc781611a56565b82525050565b6000602082019050611ce26000830184611cbe565b92915050565b611cf181611c48565b8114611cfc57600080fd5b50565b600081359050611d0e81611ce8565b92915050565b60008060408385031215611d2b57611d2a611a2c565b5b6000611d3985828601611a7f565b9250506020611d4a85828601611cff565b9150509250929050565b600060208284031215611d6a57611d69611a2c565b5b6000611d7884828501611b0c565b91505092915050565b6000819050919050565b611d9481611d81565b8114611d9f57600080fd5b50565b600081359050611db181611d8b565b92915050565b600060208284031215611dcd57611dcc611a2c565b5b6000611ddb84828501611da2565b91505092915050565b600082825260208201905092915050565b7f4e6f2045544820746f2077697468647261770000000000000000000000000000600082015250565b6000611e2b601283611de4565b9150611e3682611df5565b602082019050919050565b60006020820190508181036000830152611e5a81611e1e565b9050919050565b600081905092915050565b50565b6000611e7c600083611e61565b9150611e8782611e6c565b600082019050919050565b6000611e9d82611e6f565b9150819050919050565b7f455448207472616e73666572206661696c656400000000000000000000000000600082015250565b6000611edd601383611de4565b9150611ee882611ea7565b602082019050919050565b60006020820190508181036000830152611f0c81611ed0565b9050919050565b600082825260208201905092915050565b82818337600083830152505050565b6000601f19601f8301169050919050565b6000611f508385611f13565b9350611f5d838584611f24565b611f6683611f33565b840190509392505050565b600060c082019050611f86600083018a611cbe565b611f936020830189611cbe565b611fa06040830188611acb565b611fad6060830187611acb565b611fba6080830186611cbe565b81810360a0830152611fcd818486611f44565b905098975050505050505050565b600081519050611fea81611af5565b92915050565b60006020828403121561200657612005611a2c565b5b600061201484828501611fdb565b91505092915050565b60006060820190506120326000830186611acb565b61203f6020830185611acb565b61204c6040830184611cbe565b949350505050565b7f4e6f20746f6b656e2062616c616e636500000000000000000000000000000000600082015250565b600061208a601083611de4565b915061209582612054565b602082019050919050565b600060208201905081810360008301526120b98161207d565b9050919050565b6000819050919050565b600067ffffffffffffffff82169050919050565b6000819050919050565b60006121036120fe6120f9846120c0565b6120de565b6120ca565b9050919050565b612113816120e8565b82525050565b600060208201905061212e600083018461210a565b92915050565b7f46656520746f6f20686967680000000000000000000000000000000000000000600082015250565b600061216a600c83611de4565b915061217582612134565b602082019050919050565b600060208201905081810360008301526121998161215d565b9050919050565b7f5a65726f20616464726573730000000000000000000000000000000000000000600082015250565b60006121d6600c83611de4565b91506121e1826121a0565b602082019050919050565b60006020820190508181036000830152612205816121c9565b9050919050565b60006040820190506122216000830185611cbe565b61222e6020830184611c54565b9392505050565b7f496e76616c696420616461707465720000000000000000000000000000000000600082015250565b600061226b600f83611de4565b915061227682612235565b602082019050919050565b6000602082019050818103600083015261229a8161225e565b9050919050565b7f41646170746572206e6f7420617070726f766564000000000000000000000000600082015250565b60006122d7601483611de4565b91506122e2826122a1565b602082019050919050565b60006020820190508181036000830152612306816122ca565b9050919050565b7f4e487b7100000000000000000000000000000000000000000000000000000000600052601160045260246000fd5b600061234782611ac1565b915061235283611ac1565b925082820261236081611ac1565b915082820484148315176123775761237661230d565b5b5092915050565b7f4e487b7100000000000000000000000000000000000000000000000000000000600052601260045260246000fd5b60006123b882611ac1565b91506123c383611ac1565b9250826123d3576123d261237e565b5b828204905092915050565b60006123e982611ac1565b91506123f483611ac1565b925082820390508181111561240c5761240b61230d565b5b92915050565b7f496e636f7272656374204554482073656e740000000000000000000000000000600082015250565b6000612448601283611de4565b915061245382612412565b602082019050919050565b600060208201905081810360008301526124778161243b565b9050919050565b60006040820190506124936000830185611cbe565b6124a06020830184611acb565b9392505050565b60006060820190506124bc6000830186611cbe565b6124c96020830185611cbe565b6124d66040830184611acb565b94935050505056fea2646970667358221220673e55527629179d70264dbe7c4737139339b7730a2deb0608dcde87865f035764736f6c63430008160033",
  "linkReferences": {},
  "deployedLinkReferences": {}
}