{
  "_format": "hh-sol-artifact-1",
  "contractName": "AerodromeSlipstreamAdapter",
  "sourceName": "contracts/AerodromeSlipstreamAdapter.sol",
  "abi": [
    {
      "inputs": [
        {
          "internalType": "address",
          "name": "_router",
          "type": "address"
        },
        {
          "internalType": "address",
          "name": "_factory",
          "type": "address"
        }
      ],
      "stateMutability": "nonpayable",
      "type": "constructor"
    },
    {
      "inputs": [
        {
          "internalType": "address",
          "name": "spender",
          "type": "address"
        },
        {
          "internalType": "uint256",
          "name": "currentAllowance",
          "type": "uint256"
        },
        {
          "internalType": "uint256",
          "name": "requestedDecrease",
          "type": "uint256"
        }
      ],
      "name": "SafeERC20FailedDecreaseAllowance",
      "type": "error"
    },
    {
      "inputs": [
        {
          "internalType": "address",
          "name": "token",
          "type": "address"
        }
      ],
      "name": "SafeERC20FailedOperation",
      "type": "error"
    },
    {
      "anonymous": false,
      "inputs": [
        {
          "indexed": false,
          "internalType": "string",
          "name": "method",
          "type": "string"
        },
        {
          "indexed": false,
          "internalType": "string",
          "name": "reason",
          "type": "string"
        }
      ],
      "name": "SwapFailed",
      "type": "event"
    },
    {
      "anonymous": false,
      "inputs": [
        {
          "indexed": false,
          "internalType": "string",
          "name": "method",
          "type": "string"
        },
        {
          "indexed": false,
          "internalType": "address",
          "name": "tokenIn",
          "type": "address"
        },
        {
          "indexed": false,
          "internalType": "address",
          "name": "tokenOut",
          "type": "address"
        },
        {
          "indexed": false,
          "internalType": "uint256",
          "name": "amount",
          "type": "uint256"
        },
        {
          "indexed": false,
          "internalType": "uint256",
          "name": "minOrMax",
          "type": "uint256"
        },
        {
          "indexed": false,
          "internalType": "address",
          "name": "recipient",
          "type": "address"
        }
      ],
      "name": "SwapStarted",
      "type": "event"
    },
    {
      "anonymous": false,
      "inputs": [
        {
          "indexed": false,
          "internalType": "string",
          "name": "method",
          "type": "string"
        },
        {
          "indexed": false,
          "internalType": "uint256",
          "name": "amountUsedOrOut",
          "type": "uint256"
        }
      ],
      "name": "SwapSuccess",
      "type": "event"
    },
    {
      "inputs": [],
      "name": "DEFAULT_DEADLINE",
      "outputs": [
        {
          "internalType": "uint256",
          "name": "",
          "type": "uint256"
        }
      ],
      "stateMutability": "view",
      "type": "function"
    },
    {
      "inputs": [],
      "name": "factory",
      "outputs": [
        {
          "internalType": "address",
          "name": "",
          "type": "address"
        }
      ],
      "stateMutability": "view",
      "type": "function"
    },
    {
      "inputs": [],
      "name": "router",
      "outputs": [
        {
          "internalType": "address",
          "name": "",
          "type": "address"
        }
      ],
      "stateMutability": "view",
      "type": "function"
    },
    {
      "inputs": [
        {
          "internalType": "address",
          "name": "tokenIn",
          "type": "address"
        },
        {
          "internalType": "address",
          "name": "tokenOut",
          "type": "address"
        },
        {
          "internalType": "uint256",
          "name": "amountIn",
          "type": "uint256"
        },
        {
          "internalType": "uint256",
          "name": "minAmountOut",
          "type": "uint256"
        },
        {
          "internalType": "address",
          "name": "recipient",
          "type": "address"
        },
        {
          "internalType": "bytes",
          "name": "data",
          "type": "bytes"
        }
      ],
      "name": "swapExactInput",
      "outputs": [
        {
          "internalType": "uint256",
          "name": "amountOut",
          "type": "uint256"
        }
      ],
      "stateMutability": "nonpayable",
      "type": "function"
    },
    {
      "inputs": [
        {
          "internalType": "address[]",
          "name": "path",
          "type": "address[]"
        },
        {
          "internalType": "uint256",
          "name": "amountIn",
          "type": "uint256"
        },
        {
          "internalType": "uint256",
          "name": "minAmountOut",
          "type": "uint256"
        },
        {
          "internalType": "address",
          "name": "recipient",
          "type": "address"
        },
        {
          "internalType": "bytes",
          "name": "data",
          "type": "bytes"
        }
      ],
      "name": "swapExactInputPath",
      "outputs": [
        {
          "internalType": "uint256",
          "name": "amountOut",
          "type": "uint256"
        }
      ],
      "stateMutability": "nonpayable",
      "type": "function"
    },
    {
      "inputs": [
        {
          "internalType": "address",
          "name": "tokenIn",
          "type": "address"
        },
        {
          "internalType": "address",
          "name": "tokenOut",
          "type": "address"
        },
        {
          "internalType": "uint256",
          "name": "maxAmountIn",
          "type": "uint256"
        },
        {
          "internalType": "uint256",
          "name": "amountOut",
          "type": "uint256"
        },
        {
          "internalType": "address",
          "name": "recipient",
          "type": "address"
        },
        {
          "internalType": "bytes",
          "name": "data",
          "type": "bytes"
        }
      ],
      "name": "swapExactOutput",
      "outputs": [
        {
          "internalType": "uint256",
          "name": "amountInUsed",
          "type": "uint256"
        }
      ],
      "stateMutability": "nonpayable",
      "type": "function"
    },
    {
      "inputs": [
        {
          "internalType": "address[]",
          "name": "path",
          "type": "address[]"
        },
        {
          "internalType": "uint256",
          "name": "maxAmountIn",
          "type": "uint256"
        },
        {
          "internalType": "uint256",
          "name": "amountOut",
          "type": "uint256"
        },
        {
          "internalType": "address",
          "name": "recipient",
          "type": "address"
        },
        {
          "internalType": "bytes",
          "name": "data",
          "type": "bytes"
        }
      ],
      "name": "swapExactOutputPath",
      "outputs": [
        {
          "internalType": "uint256",
          "name": "amountInUsed",
          "type": "uint256"
        }
      ],
      "stateMutability": "nonpayable",
      "type": "function"
    }
  ],
  "bytecode": "0x60c06040523480156200001157600080fd5b5060405162003a5638038062003a568339818101604052810190620000379190620001f5565b600073ffffffffffffffffffffffffffffffffffffffff168273ffffffffffffffffffffffffffffffffffffffff1603620000a9576040517f08c379a0000000000000000000000000000000000000000000000000000000008152600401620000a0906200029d565b60405180910390fd5b600073ffffffffffffffffffffffffffffffffffffffff168173ffffffffffffffffffffffffffffffffffffffff16036200011b576040517f08c379a000000000000000000000000000000000000000000000000000000000815260040162000112906200030f565b60405180910390fd5b8173ffffffffffffffffffffffffffffffffffffffff1660808173ffffffffffffffffffffffffffffffffffffffff16815250508073ffffffffffffffffffffffffffffffffffffffff1660a08173ffffffffffffffffffffffffffffffffffffffff1681525050505062000331565b600080fd5b600073ffffffffffffffffffffffffffffffffffffffff82169050919050565b6000620001bd8262000190565b9050919050565b620001cf81620001b0565b8114620001db57600080fd5b50565b600081519050620001ef81620001c4565b92915050565b600080604083850312156200020f576200020e6200018b565b5b60006200021f85828601620001de565b92505060206200023285828601620001de565b9150509250929050565b600082825260208201905092915050565b7f496e76616c696420726f75746572206164647265737300000000000000000000600082015250565b6000620002856016836200023c565b915062000292826200024d565b602082019050919050565b60006020820190508181036000830152620002b88162000276565b9050919050565b7f496e76616c696420666163746f72792061646472657373000000000000000000600082015250565b6000620002f76017836200023c565b91506200030482620002bf565b602082019050919050565b600060208201905081810360008301526200032a81620002e8565b9050919050565b60805160a0516136ce620003886000396000610b200152600081816103a4015281816108a901528181610dbb01528181611279015281816114e80152818161152b015281816115b8015261160401526136ce6000f3fe608060405234801561001057600080fd5b506004361061007d5760003560e01c8063c45a01551161005b578063c45a015514610100578063c81821871461011e578063e854bac31461014e578063f887ea401461017e5761007d565b8063024984121461008257806341890a4a146100b2578063a7bd60f6146100e2575b600080fd5b61009c600480360381019061009791906121be565b61019c565b6040516100a9919061227c565b60405180910390f35b6100cc60048036038101906100c791906122ed565b610630565b6040516100d9919061227c565b60405180910390f35b6100ea610b18565b6040516100f7919061227c565b60405180910390f35b610108610b1e565b60405161011591906123b8565b60405180910390f35b610138600480360381019061013391906122ed565b610b42565b604051610145919061227c565b60405180910390f35b610168600480360381019061016391906121be565b611071565b604051610175919061227c565b60405180910390f35b6101866114e6565b60405161019391906123b8565b60405180910390f35b60008083838101906101ae919061240c565b905060008160020b136101f6576040517f08c379a00000000000000000000000000000000000000000000000000000000081526004016101ed90612496565b60405180910390fd5b7fa7c00d5b63aadefba872b6a26b2a1e0543305eb1e141e3981ddd6561d42f6ff3898989898960405161022d959493929190612502565b60405180910390a1868973ffffffffffffffffffffffffffffffffffffffff166370a08231306040518263ffffffff1660e01b815260040161026f91906123b8565b602060405180830381865afa15801561028c573d6000803e3d6000fd5b505050506040513d601f19601f820116820180604052508101906102b0919061257d565b10156102f1576040517f08c379a00000000000000000000000000000000000000000000000000000000081526004016102e8906125f6565b60405180910390fd5b6102fb898861150a565b60006040518061010001604052808b73ffffffffffffffffffffffffffffffffffffffff1681526020018a73ffffffffffffffffffffffffffffffffffffffff1681526020018360020b81526020018773ffffffffffffffffffffffffffffffffffffffff16815260200161012c426103749190612645565b8152602001888152602001898152602001600073ffffffffffffffffffffffffffffffffffffffff1681525090507f000000000000000000000000000000000000000000000000000000000000000073ffffffffffffffffffffffffffffffffffffffff1663c714e838826040518263ffffffff1660e01b81526004016103fb9190612757565b6020604051808303816000875af192505050801561043757506040513d601f19601f82011682018060405250810190610434919061257d565b60015b6105c957610443612780565b806308c379a0036104f55750610457612813565b8061046257506104f7565b7f0cb2c3347070588fe80733f31f830745d588c9ede3ac5b24a4cd3a74b94f27de816040516104919190612911565b60405180910390a1806040516020016104aa91906129ce565b6040516020818303038152906040526040517f08c379a00000000000000000000000000000000000000000000000000000000081526004016104ec91906129f0565b60405180910390fd5b505b3d8060008114610523576040519150601f19603f3d011682016040523d82523d6000602084013e610528565b606091505b5060006105348261164f565b90507f0cb2c3347070588fe80733f31f830745d588c9ede3ac5b24a4cd3a74b94f27de816040516105659190612911565b60405180910390a18060405160200161057e9190612a5e565b6040516020818303038152906040526040517f08c379a00000000000000000000000000000000000000000000000000000000081526004016105c091906129f0565b60405180910390fd5b8093507f48da0dea68023f210d0af8d25a6aed081add8d9a23d731f290920318e5798d88846040516105fb9190612a80565b60405180910390a188841015610622576106218b33868c61061c9190612aae565b611920565b5b505050979650505050505050565b60008060006106848a8a87878080601f016020809104026020016040519081016040528093929190818152602001838380828437600081840152601f19601f8201169050808301925050505050505061199f565b9150915060006106958b8b85611b6e565b90507fa7c00d5b63aadefba872b6a26b2a1e0543305eb1e141e3981ddd6561d42f6ff38b8b60008181106106cc576106cb612ae2565b5b90506020020160208101906106e19190612b11565b8c8c60018f8f90506106f39190612aae565b81811061070357610702612ae2565b5b90506020020160208101906107189190612b11565b8b8b8b60405161072c959493929190612b8a565b60405180910390a1888b8b600081811061074957610748612ae2565b5b905060200201602081019061075e9190612b11565b73ffffffffffffffffffffffffffffffffffffffff166370a08231306040518263ffffffff1660e01b815260040161079691906123b8565b602060405180830381865afa1580156107b3573d6000803e3d6000fd5b505050506040513d601f19601f820116820180604052508101906107d7919061257d565b1015610818576040517f08c379a000000000000000000000000000000000000000000000000000000000815260040161080f906125f6565b60405180910390fd5b61084a8b8b600081811061082f5761082e612ae2565b5b90506020020160208101906108449190612b11565b8a61150a565b60006040518060a001604052808381526020018973ffffffffffffffffffffffffffffffffffffffff168152602001600085146108875784610896565b61012c426108959190612645565b5b81526020018b81526020018a81525090507f000000000000000000000000000000000000000000000000000000000000000073ffffffffffffffffffffffffffffffffffffffff1663c04b8d59826040518263ffffffff1660e01b81526004016109009190612cbb565b6020604051808303816000875af192505050801561093c57506040513d601f19601f82011682018060405250810190610939919061257d565b60015b610ace57610948612780565b806308c379a0036109fa575061095c612813565b8061096757506109fc565b7f0cb2c3347070588fe80733f31f830745d588c9ede3ac5b24a4cd3a74b94f27de816040516109969190612cdd565b60405180910390a1806040516020016109af9190612d5e565b6040516020818303038152906040526040517f08c379a00000000000000000000000000000000000000000000000000000000081526004016109f191906129f0565b60405180910390fd5b505b3d8060008114610a28576040519150601f19603f3d011682016040523d82523d6000602084013e610a2d565b606091505b506000610a398261164f565b90507f0cb2c3347070588fe80733f31f830745d588c9ede3ac5b24a4cd3a74b94f27de81604051610a6a9190612cdd565b60405180910390a180604051602001610a839190612df2565b6040516020818303038152906040526040517f08c379a0000000000000000000000000000000000000000000000000000000008152600401610ac591906129f0565b60405180910390fd5b8095507f48da0dea68023f210d0af8d25a6aed081add8d9a23d731f290920318e5798d8886604051610b009190612e14565b60405180910390a15050505050979650505050505050565b61012c81565b7f000000000000000000000000000000000000000000000000000000000000000081565b6000806000610b968a8a87878080601f016020809104026020016040519081016040528093929190818152602001838380828437600081840152601f19601f8201169050808301925050505050505061199f565b915091506000610ba78b8b85611c40565b90507fa7c00d5b63aadefba872b6a26b2a1e0543305eb1e141e3981ddd6561d42f6ff38b8b6000818110610bde57610bdd612ae2565b5b9050602002016020810190610bf39190612b11565b8c8c60018f8f9050610c059190612aae565b818110610c1557610c14612ae2565b5b9050602002016020810190610c2a9190612b11565b8b8b8b604051610c3e959493929190612e8e565b60405180910390a1888b8b6000818110610c5b57610c5a612ae2565b5b9050602002016020810190610c709190612b11565b73ffffffffffffffffffffffffffffffffffffffff166370a08231306040518263ffffffff1660e01b8152600401610ca891906123b8565b602060405180830381865afa158015610cc5573d6000803e3d6000fd5b505050506040513d601f19601f82011682018060405250810190610ce9919061257d565b1015610d2a576040517f08c379a0000000000000000000000000000000000000000000000000000000008152600401610d21906125f6565b60405180910390fd5b610d5c8b8b6000818110610d4157610d40612ae2565b5b9050602002016020810190610d569190612b11565b8a61150a565b60006040518060a001604052808381526020018973ffffffffffffffffffffffffffffffffffffffff16815260200160008514610d995784610da8565b61012c42610da79190612645565b5b81526020018a81526020018b81525090507f000000000000000000000000000000000000000000000000000000000000000073ffffffffffffffffffffffffffffffffffffffff1663f28c0498826040518263ffffffff1660e01b8152600401610e129190612f6a565b6020604051808303816000875af1925050508015610e4e57506040513d601f19601f82011682018060405250810190610e4b919061257d565b60015b610fe057610e5a612780565b806308c379a003610f0c5750610e6e612813565b80610e795750610f0e565b7f0cb2c3347070588fe80733f31f830745d588c9ede3ac5b24a4cd3a74b94f27de81604051610ea89190612f8c565b60405180910390a180604051602001610ec19190612d5e565b6040516020818303038152906040526040517f08c379a0000000000000000000000000000000000000000000000000000000008152600401610f0391906129f0565b60405180910390fd5b505b3d8060008114610f3a576040519150601f19603f3d011682016040523d82523d6000602084013e610f3f565b606091505b506000610f4b8261164f565b90507f0cb2c3347070588fe80733f31f830745d588c9ede3ac5b24a4cd3a74b94f27de81604051610f7c9190612f8c565b60405180910390a180604051602001610f959190612df2565b6040516020818303038152906040526040517f08c379a0000000000000000000000000000000000000000000000000000000008152600401610fd791906129f0565b60405180910390fd5b8095507f48da0dea68023f210d0af8d25a6aed081add8d9a23d731f290920318e5798d88866040516110129190612fc1565b60405180910390a18a861015611061576110608d8d600081811061103957611038612ae2565b5b905060200201602081019061104e9190612b11565b33888e61105b9190612aae565b611920565b5b5050505050979650505050505050565b6000808383810190611083919061240c565b905060008160020b136110cb576040517f08c379a00000000000000000000000000000000000000000000000000000000081526004016110c290612496565b60405180910390fd5b7fa7c00d5b63aadefba872b6a26b2a1e0543305eb1e141e3981ddd6561d42f6ff3898989898960405161110295949392919061303b565b60405180910390a1868973ffffffffffffffffffffffffffffffffffffffff166370a08231306040518263ffffffff1660e01b815260040161114491906123b8565b602060405180830381865afa158015611161573d6000803e3d6000fd5b505050506040513d601f19601f82011682018060405250810190611185919061257d565b10156111c6576040517f08c379a00000000000000000000000000000000000000000000000000000000081526004016111bd906125f6565b60405180910390fd5b6111d0898861150a565b60006040518061010001604052808b73ffffffffffffffffffffffffffffffffffffffff1681526020018a73ffffffffffffffffffffffffffffffffffffffff1681526020018360020b81526020018773ffffffffffffffffffffffffffffffffffffffff16815260200161012c426112499190612645565b8152602001898152602001888152602001600073ffffffffffffffffffffffffffffffffffffffff1681525090507f000000000000000000000000000000000000000000000000000000000000000073ffffffffffffffffffffffffffffffffffffffff1663a026383e826040518263ffffffff1660e01b81526004016112d09190613143565b6020604051808303816000875af192505050801561130c57506040513d601f19601f82011682018060405250810190611309919061257d565b60015b61149e57611318612780565b806308c379a0036113ca575061132c612813565b8061133757506113cc565b7f0cb2c3347070588fe80733f31f830745d588c9ede3ac5b24a4cd3a74b94f27de81604051611366919061315f565b60405180910390a18060405160200161137f91906129ce565b6040516020818303038152906040526040517f08c379a00000000000000000000000000000000000000000000000000000000081526004016113c191906129f0565b60405180910390fd5b505b3d80600081146113f8576040519150601f19603f3d011682016040523d82523d6000602084013e6113fd565b606091505b5060006114098261164f565b90507f0cb2c3347070588fe80733f31f830745d588c9ede3ac5b24a4cd3a74b94f27de8160405161143a919061315f565b60405180910390a1806040516020016114539190612a5e565b6040516020818303038152906040526040517f08c379a000000000000000000000000000000000000000000000000000000000815260040161149591906129f0565b60405180910390fd5b8093507f48da0dea68023f210d0af8d25a6aed081add8d9a23d731f290920318e5798d88846040516114d09190613194565b60405180910390a1505050979650505050505050565b7f000000000000000000000000000000000000000000000000000000000000000081565b60008273ffffffffffffffffffffffffffffffffffffffff1663dd62ed3e307f00000000000000000000000000000000000000000000000000000000000000006040518363ffffffff1660e01b81526004016115679291906131c2565b602060405180830381865afa158015611584573d6000803e3d6000fd5b505050506040513d601f19601f820116820180604052508101906115a8919061257d565b905060008111156115ff576115fe7f0000000000000000000000000000000000000000000000000000000000000000828573ffffffffffffffffffffffffffffffffffffffff16611d289092919063ffffffff16565b5b61164a7f0000000000000000000000000000000000000000000000000000000000000000838573ffffffffffffffffffffffffffffffffffffffff16611e049092919063ffffffff16565b505050565b606060007f3031323334353637383961626364656600000000000000000000000000000000905060006002845161168691906131eb565b60026116929190612645565b67ffffffffffffffff8111156116ab576116aa6127b3565b5b6040519080825280601f01601f1916602001820160405280156116dd5781602001600182028036833780820191505090505b5090507f30000000000000000000000000000000000000000000000000000000000000008160008151811061171557611714612ae2565b5b60200101907effffffffffffffffffffffffffffffffffffffffffffffffffffffffffffff1916908160001a9053507f78000000000000000000000000000000000000000000000000000000000000008160018151811061177957611778612ae2565b5b60200101907effffffffffffffffffffffffffffffffffffffffffffffffffffffffffffff1916908160001a90535060005b8451811015611915578260048683815181106117ca576117c9612ae2565b5b602001015160f81c60f81b7effffffffffffffffffffffffffffffffffffffffffffffffffffffffffffff1916901c60f81c60ff16601081106118105761180f612ae2565b5b1a60f81b8260028361182291906131eb565b600261182e9190612645565b8151811061183f5761183e612ae2565b5b60200101907effffffffffffffffffffffffffffffffffffffffffffffffffffffffffffff1916908160001a90535082600f60f81b86838151811061188757611886612ae2565b5b602001015160f81c60f81b1660f81c60ff16601081106118aa576118a9612ae2565b5b1a60f81b826002836118bc91906131eb565b60036118c89190612645565b815181106118d9576118d8612ae2565b5b60200101907effffffffffffffffffffffffffffffffffffffffffffffffffffffffffffff1916908160001a90535080806001019150506117ab565b508092505050919050565b61199a838473ffffffffffffffffffffffffffffffffffffffff1663a9059cbb858560405160240161195392919061322d565b604051602081830303815290604052915060e01b6020820180517bffffffffffffffffffffffffffffffffffffffffffffffffffffffff8381831617835250505050611ea0565b505050565b60606000806001868690506119b49190612aae565b9050602080826119c491906131eb565b6119ce9190612645565b845110611a3957838060200190518101906119e99190613349565b809350819450505080835114611a34576040517f08c379a0000000000000000000000000000000000000000000000000000000008152600401611a2b906133f1565b60405180910390fd5b611aeb565b602081611a4691906131eb565b845103611aaf5783806020019051810190611a619190613411565b925080835114611aa6576040517f08c379a0000000000000000000000000000000000000000000000000000000008152600401611a9d906133f1565b60405180910390fd5b60009150611aea565b6040517f08c379a0000000000000000000000000000000000000000000000000000000008152600401611ae1906134a6565b60405180910390fd5b5b60005b8351811015611b64576000848281518110611b0c57611b0b612ae2565b5b602002602001015160020b13611b57576040517f08c379a0000000000000000000000000000000000000000000000000000000008152600401611b4e90612496565b60405180910390fd5b8080600101915050611aee565b5050935093915050565b60608060005b600186869050611b849190612aae565b811015611c345781868683818110611b9f57611b9e612ae2565b5b9050602002016020810190611bb49190612b11565b858381518110611bc757611bc6612ae2565b5b60200260200101518888600186611bde9190612645565b818110611bee57611bed612ae2565b5b9050602002016020810190611c039190612b11565b604051602001611c169493929190613580565b60405160208183030381529060405291508080600101915050611b74565b50809150509392505050565b6060806000600186869050611c559190612aae565b90505b6000811115611d1c5781868683818110611c7557611c74612ae2565b5b9050602002016020810190611c8a9190612b11565b85600184611c989190612aae565b81518110611ca957611ca8612ae2565b5b60200260200101518888600186611cc09190612aae565b818110611cd057611ccf612ae2565b5b9050602002016020810190611ce59190612b11565b604051602001611cf89493929190613580565b60405160208183030381529060405291508080611d14906135ca565b915050611c58565b50809150509392505050565b60008373ffffffffffffffffffffffffffffffffffffffff1663dd62ed3e30856040518363ffffffff1660e01b8152600401611d659291906131c2565b602060405180830381865afa158015611d82573d6000803e3d6000fd5b505050506040513d601f19601f82011682018060405250810190611da6919061257d565b905081811015611df1578281836040517fe570110f000000000000000000000000000000000000000000000000000000008152600401611de8939291906135f3565b60405180910390fd5b611dfe8484848403611f42565b50505050565b60008373ffffffffffffffffffffffffffffffffffffffff1663dd62ed3e30856040518363ffffffff1660e01b8152600401611e419291906131c2565b602060405180830381865afa158015611e5e573d6000803e3d6000fd5b505050506040513d601f19601f82011682018060405250810190611e82919061257d565b9050611e9a84848484611e959190612645565b611f42565b50505050565b600080602060008451602086016000885af180611ec3576040513d6000823e3d81fd5b3d925060005191505060008214611ede576001811415611efa565b60008473ffffffffffffffffffffffffffffffffffffffff163b145b15611f3c57836040517f5274afe7000000000000000000000000000000000000000000000000000000008152600401611f3391906123b8565b60405180910390fd5b50505050565b60008373ffffffffffffffffffffffffffffffffffffffff1663095ea7b38484604051602401611f7392919061322d565b604051602081830303815290604052915060e01b6020820180517bffffffffffffffffffffffffffffffffffffffffffffffffffffffff83818316178352505050509050611fc18482612051565b61204b57612040848573ffffffffffffffffffffffffffffffffffffffff1663095ea7b3866000604051602401611ff992919061366f565b604051602081830303815290604052915060e01b6020820180517bffffffffffffffffffffffffffffffffffffffffffffffffffffffff8381831617835250505050611ea0565b61204a8482611ea0565b5b50505050565b6000806000806020600086516020880160008a5af192503d915060005190508280156120a657506000821461208957600181146120a5565b60008673ffffffffffffffffffffffffffffffffffffffff163b115b5b935050505092915050565b6000604051905090565b600080fd5b600080fd5b600073ffffffffffffffffffffffffffffffffffffffff82169050919050565b60006120f0826120c5565b9050919050565b612100816120e5565b811461210b57600080fd5b50565b60008135905061211d816120f7565b92915050565b6000819050919050565b61213681612123565b811461214157600080fd5b50565b6000813590506121538161212d565b92915050565b600080fd5b600080fd5b600080fd5b60008083601f84011261217e5761217d612159565b5b8235905067ffffffffffffffff81111561219b5761219a61215e565b5b6020830191508360018202830111156121b7576121b6612163565b5b9250929050565b600080600080600080600060c0888a0312156121dd576121dc6120bb565b5b60006121eb8a828b0161210e565b97505060206121fc8a828b0161210e565b965050604061220d8a828b01612144565b955050606061221e8a828b01612144565b945050608061222f8a828b0161210e565b93505060a088013567ffffffffffffffff8111156122505761224f6120c0565b5b61225c8a828b01612168565b925092505092959891949750929550565b61227681612123565b82525050565b6000602082019050612291600083018461226d565b92915050565b60008083601f8401126122ad576122ac612159565b5b8235905067ffffffffffffffff8111156122ca576122c961215e565b5b6020830191508360208202830111156122e6576122e5612163565b5b9250929050565b600080600080600080600060a0888a03121561230c5761230b6120bb565b5b600088013567ffffffffffffffff81111561232a576123296120c0565b5b6123368a828b01612297565b975097505060206123498a828b01612144565b955050604061235a8a828b01612144565b945050606061236b8a828b0161210e565b935050608088013567ffffffffffffffff81111561238c5761238b6120c0565b5b6123988a828b01612168565b925092505092959891949750929550565b6123b2816120e5565b82525050565b60006020820190506123cd60008301846123a9565b92915050565b60008160020b9050919050565b6123e9816123d3565b81146123f457600080fd5b50565b600081359050612406816123e0565b92915050565b600060208284031215612422576124216120bb565b5b6000612430848285016123f7565b91505092915050565b600082825260208201905092915050565b7f496e76616c6964207469636b2073706163696e67000000000000000000000000600082015250565b6000612480601483612439565b915061248b8261244a565b602082019050919050565b600060208201905081810360008301526124af81612473565b9050919050565b7f7377617045786163744f75747075740000000000000000000000000000000000600082015250565b60006124ec600f83612439565b91506124f7826124b6565b602082019050919050565b600060c082019050818103600083015261251b816124df565b905061252a60208301886123a9565b61253760408301876123a9565b612544606083018661226d565b612551608083018561226d565b61255e60a08301846123a9565b9695505050505050565b6000815190506125778161212d565b92915050565b600060208284031215612593576125926120bb565b5b60006125a184828501612568565b91505092915050565b7f546f6b656e73206e6f7420726563656976656400000000000000000000000000600082015250565b60006125e0601383612439565b91506125eb826125aa565b602082019050919050565b6000602082019050818103600083015261260f816125d3565b9050919050565b7f4e487b7100000000000000000000000000000000000000000000000000000000600052601160045260246000fd5b600061265082612123565b915061265b83612123565b925082820190508082111561267357612672612616565b5b92915050565b612682816120e5565b82525050565b612691816123d3565b82525050565b6126a081612123565b82525050565b6126af816120c5565b82525050565b610100820160008201516126cc6000850182612679565b5060208201516126df6020850182612679565b5060408201516126f26040850182612688565b5060608201516127056060850182612679565b5060808201516127186080850182612697565b5060a082015161272b60a0850182612697565b5060c082015161273e60c0850182612697565b5060e082015161275160e08501826126a6565b50505050565b60006101008201905061276d60008301846126b5565b92915050565b60008160e01c9050919050565b600060033d111561279f5760046000803e61279c600051612773565b90505b90565b6000601f19601f8301169050919050565b7f4e487b7100000000000000000000000000000000000000000000000000000000600052604160045260246000fd5b6127eb826127a2565b810181811067ffffffffffffffff8211171561280a576128096127b3565b5b80604052505050565b600060443d106128a0576128256120b1565b60043d036004823e80513d602482011167ffffffffffffffff8211171561284d5750506128a0565b808201805167ffffffffffffffff81111561286b57505050506128a0565b80602083010160043d0385018111156128885750505050506128a0565b612897826020018501866127e2565b82955050505050505b90565b600081519050919050565b60005b838110156128cc5780820151818401526020810190506128b1565b60008484015250505050565b60006128e3826128a3565b6128ed8185612439565b93506128fd8185602086016128ae565b612906816127a2565b840191505092915050565b6000604082019050818103600083015261292a816124df565b9050818103602083015261293e81846128d8565b905092915050565b600081905092915050565b7f53776170206661696c65643a2000000000000000000000000000000000000000600082015250565b6000612987600d83612946565b915061299282612951565b600d82019050919050565b60006129a8826128a3565b6129b28185612946565b93506129c28185602086016128ae565b80840191505092915050565b60006129d98261297a565b91506129e5828461299d565b915081905092915050565b60006020820190508181036000830152612a0a81846128d8565b905092915050565b7f53776170206661696c65643a206c6f772d6c6576656c206572726f7220000000600082015250565b6000612a48601d83612946565b9150612a5382612a12565b601d82019050919050565b6000612a6982612a3b565b9150612a75828461299d565b915081905092915050565b60006040820190508181036000830152612a99816124df565b9050612aa8602083018461226d565b92915050565b6000612ab982612123565b9150612ac483612123565b9250828203905081811115612adc57612adb612616565b5b92915050565b7f4e487b7100000000000000000000000000000000000000000000000000000000600052603260045260246000fd5b600060208284031215612b2757612b266120bb565b5b6000612b358482850161210e565b91505092915050565b7f737761704578616374496e707574506174680000000000000000000000000000600082015250565b6000612b74601283612439565b9150612b7f82612b3e565b602082019050919050565b600060c0820190508181036000830152612ba381612b67565b9050612bb260208301886123a9565b612bbf60408301876123a9565b612bcc606083018661226d565b612bd9608083018561226d565b612be660a08301846123a9565b9695505050505050565b600081519050919050565b600082825260208201905092915050565b6000612c1782612bf0565b612c218185612bfb565b9350612c318185602086016128ae565b612c3a816127a2565b840191505092915050565b600060a0830160008301518482036000860152612c628282612c0c565b9150506020830151612c776020860182612679565b506040830151612c8a6040860182612697565b506060830151612c9d6060860182612697565b506080830151612cb06080860182612697565b508091505092915050565b60006020820190508181036000830152612cd58184612c45565b905092915050565b60006040820190508181036000830152612cf681612b67565b90508181036020830152612d0a81846128d8565b905092915050565b7f537761702070617468206661696c65643a200000000000000000000000000000600082015250565b6000612d48601283612946565b9150612d5382612d12565b601282019050919050565b6000612d6982612d3b565b9150612d75828461299d565b915081905092915050565b7f537761702070617468206661696c65643a206c6f772d6c6576656c206572726f60008201527f7220000000000000000000000000000000000000000000000000000000000000602082015250565b6000612ddc602283612946565b9150612de782612d80565b602282019050919050565b6000612dfd82612dcf565b9150612e09828461299d565b915081905092915050565b60006040820190508181036000830152612e2d81612b67565b9050612e3c602083018461226d565b92915050565b7f7377617045786163744f75747075745061746800000000000000000000000000600082015250565b6000612e78601383612439565b9150612e8382612e42565b602082019050919050565b600060c0820190508181036000830152612ea781612e6b565b9050612eb660208301886123a9565b612ec360408301876123a9565b612ed0606083018661226d565b612edd608083018561226d565b612eea60a08301846123a9565b9695505050505050565b600060a0830160008301518482036000860152612f118282612c0c565b9150506020830151612f266020860182612679565b506040830151612f396040860182612697565b506060830151612f4c6060860182612697565b506080830151612f5f6080860182612697565b508091505092915050565b60006020820190508181036000830152612f848184612ef4565b905092915050565b60006040820190508181036000830152612fa581612e6b565b90508181036020830152612fb981846128d8565b905092915050565b60006040820190508181036000830152612fda81612e6b565b9050612fe9602083018461226d565b92915050565b7f737761704578616374496e707574000000000000000000000000000000000000600082015250565b6000613025600e83612439565b915061303082612fef565b602082019050919050565b600060c082019050818103600083015261305481613018565b905061306360208301886123a9565b61307060408301876123a9565b61307d606083018661226d565b61308a608083018561226d565b61309760a08301846123a9565b9695505050505050565b610100820160008201516130b86000850182612679565b5060208201516130cb6020850182612679565b5060408201516130de6040850182612688565b5060608201516130f16060850182612679565b5060808201516131046080850182612697565b5060a082015161311760a0850182612697565b5060c082015161312a60c0850182612697565b5060e082015161313d60e08501826126a6565b50505050565b60006101008201905061315960008301846130a1565b92915050565b6000604082019050818103600083015261317881613018565b9050818103602083015261318c81846128d8565b905092915050565b600060408201905081810360008301526131ad81613018565b90506131bc602083018461226d565b92915050565b60006040820190506131d760008301856123a9565b6131e460208301846123a9565b9392505050565b60006131f682612123565b915061320183612123565b925082820261320f81612123565b9150828204841483151761322657613225612616565b5b5092915050565b600060408201905061324260008301856123a9565b61324f602083018461226d565b9392505050565b60006132606120b1565b905061326c82826127e2565b919050565b600067ffffffffffffffff82111561328c5761328b6127b3565b5b602082029050602081019050919050565b6000815190506132ac816123e0565b92915050565b60006132c56132c084613271565b613256565b905080838252602082019050602084028301858111156132e8576132e7612163565b5b835b8181101561331157806132fd888261329d565b8452602084019350506020810190506132ea565b5050509392505050565b600082601f8301126133305761332f612159565b5b81516133408482602086016132b2565b91505092915050565b600080604083850312156133605761335f6120bb565b5b600083015167ffffffffffffffff81111561337e5761337d6120c0565b5b61338a8582860161331b565b925050602061339b85828601612568565b9150509250929050565b7f5469636b2073706163696e6773206d69736d6174636800000000000000000000600082015250565b60006133db601683612439565b91506133e6826133a5565b602082019050919050565b6000602082019050818103600083015261340a816133ce565b9050919050565b600060208284031215613427576134266120bb565b5b600082015167ffffffffffffffff811115613445576134446120c0565b5b6134518482850161331b565b91505092915050565b7f496e76616c696420706174682064617461000000000000000000000000000000600082015250565b6000613490601183612439565b915061349b8261345a565b602082019050919050565b600060208201905081810360008301526134bf81613483565b9050919050565b600081905092915050565b60006134dc82612bf0565b6134e681856134c6565b93506134f68185602086016128ae565b80840191505092915050565b60008160601b9050919050565b600061351a82613502565b9050919050565b600061352c8261350f565b9050919050565b61354461353f826120e5565b613521565b82525050565b60008160e81b9050919050565b60006135628261354a565b9050919050565b61357a613575826123d3565b613557565b82525050565b600061358c82876134d1565b91506135988286613533565b6014820191506135a88285613569565b6003820191506135b88284613533565b60148201915081905095945050505050565b60006135d582612123565b9150600082036135e8576135e7612616565b5b600182039050919050565b600060608201905061360860008301866123a9565b613615602083018561226d565b613622604083018461226d565b949350505050565b6000819050919050565b6000819050919050565b600061365961365461364f8461362a565b613634565b612123565b9050919050565b6136698161363e565b82525050565b600060408201905061368460008301856123a9565b6136916020830184613660565b939250505056fea264697066735822122028350a5f18825e0bd335791bd7f3a21730e56a6c3b0a9b19dae426676f7ce62564736f6c63430008160033",
  "linkReferences": {},
  "deployedLinkReferences": {}
}