{
  "_format": "hh-sol-artifact-1",
  "contractName": "UniswapV2Adapter",
  "sourceName": "contracts/UniswapV2Adapter.sol",
  "abi": [
    {
      "inputs": [
        {
          "internalType": "address",
          "name": "_router",
          "type": "address"
        }
      ],
      "stateMutability": "nonpayable",
      "type": "constructor"
    },
    {
      "inputs": [
        {
          "internalType": "address",
          "name": "spender",
          "type": "address"
        },
        {
          "internalType": "uint256",
          "name": "currentAllowance",
          "type": "uint256"
        },
        {
          "internalType": "uint256",
          "name": "requestedDecrease",
          "type": "uint256"
        }
      ],
      "name": "SafeERC20FailedDecreaseAllowance",
      "type": "error"
    },
    {
      "inputs": [
        {
          "internalType": "address",
          "name": "token",
          "type": "address"
        }
      ],
      "name": "SafeERC20FailedOperation",
      "type": "error"
    },
    {
      "anonymous": false,
      "inputs": [
        {
          "indexed": false,
          "internalType": "string",
          "name": "method",
          "type": "string"
        },
        {
          "indexed": false,
          "internalType": "string",
          "name": "reason",
          "type": "string"
        }
      ],
      "name": "SwapFailed",
      "type": "event"
    },
    {
      "anonymous": false,
      "inputs": [
        {
          "indexed": false,
          "internalType": "string",
          "name": "method",
          "type": "string"
        },
        {
          "indexed": false,
          "internalType": "address",
          "name": "tokenIn",
          "type": "address"
        },
        {
          "indexed": false,
          "internalType": "address",
          "name": "tokenOut",
          "type": "address"
        },
        {
          "indexed": false,
          "internalType": "uint256",
          "name": "amount",
          "type": "uint256"
        },
        {
          "indexed": false,
          "internalType": "uint256",
          "name": "minOrMax",
          "type": "uint256"
        },
        {
          "indexed": false,
          "internalType": "address",
          "name": "recipient",
          "type": "address"
        }
      ],
      "name": "SwapStarted",
      "type": "event"
    },
    {
      "anonymous": false,
      "inputs": [
        {
          "indexed": false,
          "internalType": "string",
          "name": "method",
          "type": "string"
        },
        {
          "indexed": false,
          "internalType": "uint256",
          "name": "amountUsedOrOut",
          "type": "uint256"
        }
      ],
      "name": "SwapSuccess",
      "type": "event"
    },
    {
      "inputs": [],
      "name": "DEFAULT_DEADLINE",
      "outputs": [
        {
          "internalType": "uint256",
          "name": "",
          "type": "uint256"
        }
      ],
      "stateMutability": "view",
      "type": "function"
    },
    {
      "inputs": [],
      "name": "router",
      "outputs": [
        {
          "internalType": "address",
          "name": "",
          "type": "address"
        }
      ],
      "stateMutability": "view",
      "type": "function"
    },
    {
      "inputs": [
        {
          "internalType": "address",
          "name": "tokenIn",
          "type": "address"
        },
        {
          "internalType": "address",
          "name": "tokenOut",
          "type": "address"
        },
        {
          "internalType": "uint256",
          "name": "amountIn",
          "type": "uint256"
        },
        {
          "internalType": "uint256",
          "name": "minAmountOut",
          "type": "uint256"
        },
        {
          "internalType": "address",
          "name": "recipient",
          "type": "address"
        },
        {
          "internalType": "bytes",
          "name": "",
          "type": "bytes"
        }
      ],
      "name": "swapExactInput",
      "outputs": [
        {
          "internalType": "uint256",
          "name": "amountOut",
          "type": "uint256"
        }
      ],
      "stateMutability": "nonpayable",
      "type": "function"
    },
    {
      "inputs": [
        {
          "internalType": "address[]",
          "name": "path",
          "type": "address[]"
        },
        {
          "internalType": "uint256",
          "name": "amountIn",
          "type": "uint256"
        },
        {
          "internalType": "uint256",
          "name": "minAmountOut",
          "type": "uint256"
        },
        {
          "internalType": "address",
          "name": "recipient",
          "type": "address"
        },
        {
          "internalType": "bytes",
          "name": "data",
          "type": "bytes"
        }
      ],
      "name": "swapExactInputPath",
      "outputs": [
        {
          "internalType": "uint256",
          "name": "amountOut",
          "type": "uint256"
        }
      ],
      "stateMutability": "nonpayable",
      "type": "function"
    },
    {
      "inputs": [
        {
          "internalType": "address",
          "name": "tokenIn",
          "type": "address"
        },
        {
          "internalType": "address",
          "name": "tokenOut",
          "type": "address"
        },
        {
          "internalType": "uint256",
          "name": "maxAmountIn",
          "type": "uint256"
        },
        {
          "internalType": "uint256",
          "name": "amountOut",
          "type": "uint256"
        },
        {
          "internalType": "address",
          "name": "recipient",
          "type": "address"
        },
        {
          "internalType": "bytes",
          "name": "",
          "type": "bytes"
        }
      ],
      "name": "swapExactOutput",
      "outputs": [
        {
          "internalType": "uint256",
          "name": "amountInUsed",
          "type": "uint256"
        }
      ],
      "stateMutability": "nonpayable",
      "type": "function"
    },
    {
      "inputs": [
        {
          "internalType": "address[]",
          "name": "path",
          "type": "address[]"
        },
        {
          "internalType": "uint256",
          "name": "maxAmountIn",
          "type": "uint256"
        },
        {
          "internalType": "uint256",
          "name": "amountOut",
          "type": "uint256"
        },
        {
          "internalType": "address",
          "name": "recipient",
          "type": "address"
        },
        {
          "internalType": "bytes",
          "name": "data",
          "type": "bytes"
        }
      ],
      "name": "swapExactOutputPath",
      "outputs": [
        {
          "internalType": "uint256",
          "name": "amountInUsed",
          "type": "uint256"
        }
      ],
      "stateMutability": "nonpayable",
      "type": "function"
    }
  ],
  "bytecode": "0x60a06040523480156200001157600080fd5b50604051620036703803806200367083398181016040528101906200003791906200014e565b600073ffffffffffffffffffffffffffffffffffffffff168173ffffffffffffffffffffffffffffffffffffffff1603620000a9576040517f08c379a0000000000000000000000000000000000000000000000000000000008152600401620000a090620001e1565b60405180910390fd5b8073ffffffffffffffffffffffffffffffffffffffff1660808173ffffffffffffffffffffffffffffffffffffffff16815250505062000203565b600080fd5b600073ffffffffffffffffffffffffffffffffffffffff82169050919050565b60006200011682620000e9565b9050919050565b620001288162000109565b81146200013457600080fd5b50565b60008151905062000148816200011d565b92915050565b600060208284031215620001675762000166620000e4565b5b6000620001778482850162000137565b91505092915050565b600082825260208201905092915050565b7f496e76616c696420726f75746572206164647265737300000000000000000000600082015250565b6000620001c960168362000180565b9150620001d68262000191565b602082019050919050565b60006020820190508181036000830152620001fc81620001ba565b9050919050565b6080516133e16200028f600039600081816102810152818161030e0152818161035a0152818161048e0152818161098501528181610a1201528181610a8601528181610b47015281816110060152818161109301528181611107015281816111c8015281816115e701528181611674015281816116c0015281816117f40152611aa701526133e16000f3fe608060405234801561001057600080fd5b50600436106100625760003560e01c8063024984121461006757806341890a4a14610097578063a7bd60f6146100c7578063c8182187146100e5578063e854bac314610115578063f887ea4014610145575b600080fd5b610081600480360381019061007c91906122eb565b610163565b60405161008e91906123a9565b60405180910390f35b6100b160048036038101906100ac919061241a565b610772565b6040516100be91906123a9565b60405180910390f35b6100cf610ded565b6040516100dc91906123a9565b60405180910390f35b6100ff60048036038101906100fa919061241a565b610df3565b60405161010c91906123a9565b60405180910390f35b61012f600480360381019061012a91906122eb565b6114c9565b60405161013c91906123a9565b60405180910390f35b61014d611aa5565b60405161015a91906124e5565b60405180910390f35b60007fa7c00d5b63aadefba872b6a26b2a1e0543305eb1e141e3981ddd6561d42f6ff3888888888860405161019c95949392919061255d565b60405180910390a1858873ffffffffffffffffffffffffffffffffffffffff166370a08231306040518263ffffffff1660e01b81526004016101de91906124e5565b602060405180830381865afa1580156101fb573d6000803e3d6000fd5b505050506040513d601f19601f8201168201806040525081019061021f91906125d8565b1015610260576040517f08c379a000000000000000000000000000000000000000000000000000000000815260040161025790612651565b60405180910390fd5b60008873ffffffffffffffffffffffffffffffffffffffff1663dd62ed3e307f00000000000000000000000000000000000000000000000000000000000000006040518363ffffffff1660e01b81526004016102bd929190612671565b602060405180830381865afa1580156102da573d6000803e3d6000fd5b505050506040513d601f19601f820116820180604052508101906102fe91906125d8565b90506000811115610355576103547f0000000000000000000000000000000000000000000000000000000000000000828b73ffffffffffffffffffffffffffffffffffffffff16611ac99092919063ffffffff16565b5b6103a07f0000000000000000000000000000000000000000000000000000000000000000888b73ffffffffffffffffffffffffffffffffffffffff16611ba59092919063ffffffff16565b6000600267ffffffffffffffff8111156103bd576103bc61269a565b5b6040519080825280602002602001820160405280156103eb5781602001602082028036833780820191505090505b5090508981600081518110610403576104026126c9565b5b602002602001019073ffffffffffffffffffffffffffffffffffffffff16908173ffffffffffffffffffffffffffffffffffffffff16815250508881600181518110610452576104516126c9565b5b602002602001019073ffffffffffffffffffffffffffffffffffffffff16908173ffffffffffffffffffffffffffffffffffffffff16815250507f000000000000000000000000000000000000000000000000000000000000000073ffffffffffffffffffffffffffffffffffffffff16638803dbee888a848a61012c426104da9190612727565b6040518663ffffffff1660e01b81526004016104fa959493929190612819565b6000604051808303816000875af192505050801561053b57506040513d6000823e3d601f19601f820116820180604052508101906105389190612993565b60015b6106d0576105476129e9565b806308c379a0036105f9575061055b612a0b565b8061056657506105fb565b7f0cb2c3347070588fe80733f31f830745d588c9ede3ac5b24a4cd3a74b94f27de816040516105959190612b09565b60405180910390a1806040516020016105ae9190612bc6565b6040516020818303038152906040526040517f08c379a00000000000000000000000000000000000000000000000000000000081526004016105f09190612be8565b60405180910390fd5b505b3d8060008114610627576040519150601f19603f3d011682016040523d82523d6000602084013e61062c565b606091505b507f0cb2c3347070588fe80733f31f830745d588c9ede3ac5b24a4cd3a74b94f27de61065782611c41565b6040516106649190612b09565b60405180910390a161067581611c41565b6040516020016106859190612c56565b6040516020818303038152906040526040517f08c379a00000000000000000000000000000000000000000000000000000000081526004016106c79190612be8565b60405180910390fd5b806000815181106106e4576106e36126c9565b5b602002602001015193507f48da0dea68023f210d0af8d25a6aed081add8d9a23d731f290920318e5798d888460405161071d9190612c78565b60405180910390a1888410156107645761076333858b61073d9190612ca6565b8d73ffffffffffffffffffffffffffffffffffffffff16611f129092919063ffffffff16565b5b505050979650505050505050565b60007fa7c00d5b63aadefba872b6a26b2a1e0543305eb1e141e3981ddd6561d42f6ff3888860008181106107a9576107a86126c9565b5b90506020020160208101906107be9190612cda565b898960018c8c90506107d09190612ca6565b8181106107e0576107df6126c9565b5b90506020020160208101906107f59190612cda565b888888604051610809959493929190612d53565b60405180910390a16002888890501015610858576040517f08c379a000000000000000000000000000000000000000000000000000000000815260040161084f90612e05565b60405180910390fd5b858888600081811061086d5761086c6126c9565b5b90506020020160208101906108829190612cda565b73ffffffffffffffffffffffffffffffffffffffff166370a08231306040518263ffffffff1660e01b81526004016108ba91906124e5565b602060405180830381865afa1580156108d7573d6000803e3d6000fd5b505050506040513d601f19601f820116820180604052508101906108fb91906125d8565b101561093c576040517f08c379a000000000000000000000000000000000000000000000000000000000815260040161093390612651565b60405180910390fd5b600088886000818110610952576109516126c9565b5b90506020020160208101906109679190612cda565b73ffffffffffffffffffffffffffffffffffffffff1663dd62ed3e307f00000000000000000000000000000000000000000000000000000000000000006040518363ffffffff1660e01b81526004016109c1929190612671565b602060405180830381865afa1580156109de573d6000803e3d6000fd5b505050506040513d601f19601f82011682018060405250810190610a0291906125d8565b90506000811115610a8157610a807f0000000000000000000000000000000000000000000000000000000000000000828b8b6000818110610a4657610a456126c9565b5b9050602002016020810190610a5b9190612cda565b73ffffffffffffffffffffffffffffffffffffffff16611ac99092919063ffffffff16565b5b610af47f0000000000000000000000000000000000000000000000000000000000000000888b8b6000818110610aba57610ab96126c9565b5b9050602002016020810190610acf9190612cda565b73ffffffffffffffffffffffffffffffffffffffff16611ba59092919063ffffffff16565b6000610b4385858080601f016020809104026020016040519081016040528093929190818152602001838380828437600081840152601f19601f82011690508083019250505050505050611f91565b90507f000000000000000000000000000000000000000000000000000000000000000073ffffffffffffffffffffffffffffffffffffffff166338ed173989898d8d8b876040518763ffffffff1660e01b8152600401610ba896959493929190612eb0565b6000604051808303816000875af1925050508015610be957506040513d6000823e3d601f19601f82011682018060405250810190610be69190612993565b60015b610d7e57610bf56129e9565b806308c379a003610ca75750610c09612a0b565b80610c145750610ca9565b7f0cb2c3347070588fe80733f31f830745d588c9ede3ac5b24a4cd3a74b94f27de81604051610c439190612f0c565b60405180910390a180604051602001610c5c9190612f8d565b6040516020818303038152906040526040517f08c379a0000000000000000000000000000000000000000000000000000000008152600401610c9e9190612be8565b60405180910390fd5b505b3d8060008114610cd5576040519150601f19603f3d011682016040523d82523d6000602084013e610cda565b606091505b507f0cb2c3347070588fe80733f31f830745d588c9ede3ac5b24a4cd3a74b94f27de610d0582611c41565b604051610d129190612f0c565b60405180910390a1610d2381611c41565b604051602001610d339190613021565b6040516020818303038152906040526040517f08c379a0000000000000000000000000000000000000000000000000000000008152600401610d759190612be8565b60405180910390fd5b8060018251610d8d9190612ca6565b81518110610d9e57610d9d6126c9565b5b602002602001015193507f48da0dea68023f210d0af8d25a6aed081add8d9a23d731f290920318e5798d8884604051610dd79190613043565b60405180910390a1505050979650505050505050565b61012c81565b60007fa7c00d5b63aadefba872b6a26b2a1e0543305eb1e141e3981ddd6561d42f6ff388886000818110610e2a57610e296126c9565b5b9050602002016020810190610e3f9190612cda565b898960018c8c9050610e519190612ca6565b818110610e6157610e606126c9565b5b9050602002016020810190610e769190612cda565b888888604051610e8a9594939291906130bd565b60405180910390a16002888890501015610ed9576040517f08c379a0000000000000000000000000000000000000000000000000000000008152600401610ed090612e05565b60405180910390fd5b8588886000818110610eee57610eed6126c9565b5b9050602002016020810190610f039190612cda565b73ffffffffffffffffffffffffffffffffffffffff166370a08231306040518263ffffffff1660e01b8152600401610f3b91906124e5565b602060405180830381865afa158015610f58573d6000803e3d6000fd5b505050506040513d601f19601f82011682018060405250810190610f7c91906125d8565b1015610fbd576040517f08c379a0000000000000000000000000000000000000000000000000000000008152600401610fb490612651565b60405180910390fd5b600088886000818110610fd357610fd26126c9565b5b9050602002016020810190610fe89190612cda565b73ffffffffffffffffffffffffffffffffffffffff1663dd62ed3e307f00000000000000000000000000000000000000000000000000000000000000006040518363ffffffff1660e01b8152600401611042929190612671565b602060405180830381865afa15801561105f573d6000803e3d6000fd5b505050506040513d601f19601f8201168201806040525081019061108391906125d8565b90506000811115611102576111017f0000000000000000000000000000000000000000000000000000000000000000828b8b60008181106110c7576110c66126c9565b5b90506020020160208101906110dc9190612cda565b73ffffffffffffffffffffffffffffffffffffffff16611ac99092919063ffffffff16565b5b6111757f0000000000000000000000000000000000000000000000000000000000000000888b8b600081811061113b5761113a6126c9565b5b90506020020160208101906111509190612cda565b73ffffffffffffffffffffffffffffffffffffffff16611ba59092919063ffffffff16565b60006111c485858080601f016020809104026020016040519081016040528093929190818152602001838380828437600081840152601f19601f82011690508083019250505050505050611f91565b90507f000000000000000000000000000000000000000000000000000000000000000073ffffffffffffffffffffffffffffffffffffffff16638803dbee888a8d8d8b876040518763ffffffff1660e01b815260040161122996959493929190612eb0565b6000604051808303816000875af192505050801561126a57506040513d6000823e3d601f19601f820116820180604052508101906112679190612993565b60015b6113ff576112766129e9565b806308c379a003611328575061128a612a0b565b80611295575061132a565b7f0cb2c3347070588fe80733f31f830745d588c9ede3ac5b24a4cd3a74b94f27de816040516112c49190613123565b60405180910390a1806040516020016112dd9190612f8d565b6040516020818303038152906040526040517f08c379a000000000000000000000000000000000000000000000000000000000815260040161131f9190612be8565b60405180910390fd5b505b3d8060008114611356576040519150601f19603f3d011682016040523d82523d6000602084013e61135b565b606091505b507f0cb2c3347070588fe80733f31f830745d588c9ede3ac5b24a4cd3a74b94f27de61138682611c41565b6040516113939190613123565b60405180910390a16113a481611c41565b6040516020016113b49190613021565b6040516020818303038152906040526040517f08c379a00000000000000000000000000000000000000000000000000000000081526004016113f69190612be8565b60405180910390fd5b80600081518110611413576114126126c9565b5b602002602001015193507f48da0dea68023f210d0af8d25a6aed081add8d9a23d731f290920318e5798d888460405161144c9190613158565b60405180910390a1888410156114bb576114ba33858b61146c9190612ca6565b8d8d60008181106114805761147f6126c9565b5b90506020020160208101906114959190612cda565b73ffffffffffffffffffffffffffffffffffffffff16611f129092919063ffffffff16565b5b505050979650505050505050565b60007fa7c00d5b63aadefba872b6a26b2a1e0543305eb1e141e3981ddd6561d42f6ff388888888886040516115029594939291906131d2565b60405180910390a1858873ffffffffffffffffffffffffffffffffffffffff166370a08231306040518263ffffffff1660e01b815260040161154491906124e5565b602060405180830381865afa158015611561573d6000803e3d6000fd5b505050506040513d601f19601f8201168201806040525081019061158591906125d8565b10156115c6576040517f08c379a00000000000000000000000000000000000000000000000000000000081526004016115bd90612651565b60405180910390fd5b60008873ffffffffffffffffffffffffffffffffffffffff1663dd62ed3e307f00000000000000000000000000000000000000000000000000000000000000006040518363ffffffff1660e01b8152600401611623929190612671565b602060405180830381865afa158015611640573d6000803e3d6000fd5b505050506040513d601f19601f8201168201806040525081019061166491906125d8565b905060008111156116bb576116ba7f0000000000000000000000000000000000000000000000000000000000000000828b73ffffffffffffffffffffffffffffffffffffffff16611ac99092919063ffffffff16565b5b6117067f0000000000000000000000000000000000000000000000000000000000000000888b73ffffffffffffffffffffffffffffffffffffffff16611ba59092919063ffffffff16565b6000600267ffffffffffffffff8111156117235761172261269a565b5b6040519080825280602002602001820160405280156117515781602001602082028036833780820191505090505b5090508981600081518110611769576117686126c9565b5b602002602001019073ffffffffffffffffffffffffffffffffffffffff16908173ffffffffffffffffffffffffffffffffffffffff168152505088816001815181106117b8576117b76126c9565b5b602002602001019073ffffffffffffffffffffffffffffffffffffffff16908173ffffffffffffffffffffffffffffffffffffffff16815250507f000000000000000000000000000000000000000000000000000000000000000073ffffffffffffffffffffffffffffffffffffffff166338ed17398989848a61012c426118409190612727565b6040518663ffffffff1660e01b8152600401611860959493929190612819565b6000604051808303816000875af19250505080156118a157506040513d6000823e3d601f19601f8201168201806040525081019061189e9190612993565b60015b611a36576118ad6129e9565b806308c379a00361195f57506118c1612a0b565b806118cc5750611961565b7f0cb2c3347070588fe80733f31f830745d588c9ede3ac5b24a4cd3a74b94f27de816040516118fb9190613238565b60405180910390a1806040516020016119149190612bc6565b6040516020818303038152906040526040517f08c379a00000000000000000000000000000000000000000000000000000000081526004016119569190612be8565b60405180910390fd5b505b3d806000811461198d576040519150601f19603f3d011682016040523d82523d6000602084013e611992565b606091505b507f0cb2c3347070588fe80733f31f830745d588c9ede3ac5b24a4cd3a74b94f27de6119bd82611c41565b6040516119ca9190613238565b60405180910390a16119db81611c41565b6040516020016119eb9190612c56565b6040516020818303038152906040526040517f08c379a0000000000000000000000000000000000000000000000000000000008152600401611a2d9190612be8565b60405180910390fd5b8060018251611a459190612ca6565b81518110611a5657611a556126c9565b5b602002602001015193507f48da0dea68023f210d0af8d25a6aed081add8d9a23d731f290920318e5798d8884604051611a8f919061326d565b60405180910390a1505050979650505050505050565b7f000000000000000000000000000000000000000000000000000000000000000081565b60008373ffffffffffffffffffffffffffffffffffffffff1663dd62ed3e30856040518363ffffffff1660e01b8152600401611b06929190612671565b602060405180830381865afa158015611b23573d6000803e3d6000fd5b505050506040513d601f19601f82011682018060405250810190611b4791906125d8565b905081811015611b92578281836040517fe570110f000000000000000000000000000000000000000000000000000000008152600401611b899392919061329b565b60405180910390fd5b611b9f8484848403611fcd565b50505050565b60008373ffffffffffffffffffffffffffffffffffffffff1663dd62ed3e30856040518363ffffffff1660e01b8152600401611be2929190612671565b602060405180830381865afa158015611bff573d6000803e3d6000fd5b505050506040513d601f19601f82011682018060405250810190611c2391906125d8565b9050611c3b84848484611c369190612727565b611fcd565b50505050565b606060007f30313233343536373839616263646566000000000000000000000000000000009050600060028451611c7891906132d2565b6002611c849190612727565b67ffffffffffffffff811115611c9d57611c9c61269a565b5b6040519080825280601f01601f191660200182016040528015611ccf5781602001600182028036833780820191505090505b5090507f300000000000000000000000000000000000000000000000000000000000000081600081518110611d0757611d066126c9565b5b60200101907effffffffffffffffffffffffffffffffffffffffffffffffffffffffffffff1916908160001a9053507f780000000000000000000000000000000000000000000000000000000000000081600181518110611d6b57611d6a6126c9565b5b60200101907effffffffffffffffffffffffffffffffffffffffffffffffffffffffffffff1916908160001a90535060005b8451811015611f0757826004868381518110611dbc57611dbb6126c9565b5b602001015160f81c60f81b7effffffffffffffffffffffffffffffffffffffffffffffffffffffffffffff1916901c60f81c60ff1660108110611e0257611e016126c9565b5b1a60f81b82600283611e1491906132d2565b6002611e209190612727565b81518110611e3157611e306126c9565b5b60200101907effffffffffffffffffffffffffffffffffffffffffffffffffffffffffffff1916908160001a90535082600f60f81b868381518110611e7957611e786126c9565b5b602001015160f81c60f81b1660f81c60ff1660108110611e9c57611e9b6126c9565b5b1a60f81b82600283611eae91906132d2565b6003611eba9190612727565b81518110611ecb57611eca6126c9565b5b60200101907effffffffffffffffffffffffffffffffffffffffffffffffffffffffffffff1916908160001a9053508080600101915050611d9d565b508092505050919050565b611f8c838473ffffffffffffffffffffffffffffffffffffffff1663a9059cbb8585604051602401611f45929190613314565b604051602081830303815290604052915060e01b6020820180517bffffffffffffffffffffffffffffffffffffffffffffffffffffffff83818316178352505050506120dc565b505050565b60006020825103611fb75781806020019051810190611fb091906125d8565b9050611fc8565b61012c42611fc59190612727565b90505b919050565b60008373ffffffffffffffffffffffffffffffffffffffff1663095ea7b38484604051602401611ffe929190613314565b604051602081830303815290604052915060e01b6020820180517bffffffffffffffffffffffffffffffffffffffffffffffffffffffff8381831617835250505050905061204c848261217e565b6120d6576120cb848573ffffffffffffffffffffffffffffffffffffffff1663095ea7b3866000604051602401612084929190613382565b604051602081830303815290604052915060e01b6020820180517bffffffffffffffffffffffffffffffffffffffffffffffffffffffff83818316178352505050506120dc565b6120d584826120dc565b5b50505050565b600080602060008451602086016000885af1806120ff576040513d6000823e3d81fd5b3d92506000519150506000821461211a576001811415612136565b60008473ffffffffffffffffffffffffffffffffffffffff163b145b1561217857836040517f5274afe700000000000000000000000000000000000000000000000000000000815260040161216f91906124e5565b60405180910390fd5b50505050565b6000806000806020600086516020880160008a5af192503d915060005190508280156121d35750600082146121b657600181146121d2565b60008673ffffffffffffffffffffffffffffffffffffffff163b115b5b935050505092915050565b6000604051905090565b600080fd5b600080fd5b600073ffffffffffffffffffffffffffffffffffffffff82169050919050565b600061221d826121f2565b9050919050565b61222d81612212565b811461223857600080fd5b50565b60008135905061224a81612224565b92915050565b6000819050919050565b61226381612250565b811461226e57600080fd5b50565b6000813590506122808161225a565b92915050565b600080fd5b600080fd5b600080fd5b60008083601f8401126122ab576122aa612286565b5b8235905067ffffffffffffffff8111156122c8576122c761228b565b5b6020830191508360018202830111156122e4576122e3612290565b5b9250929050565b600080600080600080600060c0888a03121561230a576123096121e8565b5b60006123188a828b0161223b565b97505060206123298a828b0161223b565b965050604061233a8a828b01612271565b955050606061234b8a828b01612271565b945050608061235c8a828b0161223b565b93505060a088013567ffffffffffffffff81111561237d5761237c6121ed565b5b6123898a828b01612295565b925092505092959891949750929550565b6123a381612250565b82525050565b60006020820190506123be600083018461239a565b92915050565b60008083601f8401126123da576123d9612286565b5b8235905067ffffffffffffffff8111156123f7576123f661228b565b5b60208301915083602082028301111561241357612412612290565b5b9250929050565b600080600080600080600060a0888a031215612439576124386121e8565b5b600088013567ffffffffffffffff811115612457576124566121ed565b5b6124638a828b016123c4565b975097505060206124768a828b01612271565b95505060406124878a828b01612271565b94505060606124988a828b0161223b565b935050608088013567ffffffffffffffff8111156124b9576124b86121ed565b5b6124c58a828b01612295565b925092505092959891949750929550565b6124df81612212565b82525050565b60006020820190506124fa60008301846124d6565b92915050565b600082825260208201905092915050565b7f7377617045786163744f75747075740000000000000000000000000000000000600082015250565b6000612547600f83612500565b915061255282612511565b602082019050919050565b600060c08201905081810360008301526125768161253a565b905061258560208301886124d6565b61259260408301876124d6565b61259f606083018661239a565b6125ac608083018561239a565b6125b960a08301846124d6565b9695505050505050565b6000815190506125d28161225a565b92915050565b6000602082840312156125ee576125ed6121e8565b5b60006125fc848285016125c3565b91505092915050565b7f546f6b656e73206e6f7420726563656976656400000000000000000000000000600082015250565b600061263b601383612500565b915061264682612605565b602082019050919050565b6000602082019050818103600083015261266a8161262e565b9050919050565b600060408201905061268660008301856124d6565b61269360208301846124d6565b9392505050565b7f4e487b7100000000000000000000000000000000000000000000000000000000600052604160045260246000fd5b7f4e487b7100000000000000000000000000000000000000000000000000000000600052603260045260246000fd5b7f4e487b7100000000000000000000000000000000000000000000000000000000600052601160045260246000fd5b600061273282612250565b915061273d83612250565b9250828201905080821115612755576127546126f8565b5b92915050565b600081519050919050565b600082825260208201905092915050565b6000819050602082019050919050565b61279081612212565b82525050565b60006127a28383612787565b60208301905092915050565b6000602082019050919050565b60006127c68261275b565b6127d08185612766565b93506127db83612777565b8060005b8381101561280c5781516127f38882612796565b97506127fe836127ae565b9250506001810190506127df565b5085935050505092915050565b600060a08201905061282e600083018861239a565b61283b602083018761239a565b818103604083015261284d81866127bb565b905061285c60608301856124d6565b612869608083018461239a565b9695505050505050565b6000601f19601f8301169050919050565b61288d82612873565b810181811067ffffffffffffffff821117156128ac576128ab61269a565b5b80604052505050565b60006128bf6121de565b90506128cb8282612884565b919050565b600067ffffffffffffffff8211156128eb576128ea61269a565b5b602082029050602081019050919050565b600061290f61290a846128d0565b6128b5565b9050808382526020820190506020840283018581111561293257612931612290565b5b835b8181101561295b578061294788826125c3565b845260208401935050602081019050612934565b5050509392505050565b600082601f83011261297a57612979612286565b5b815161298a8482602086016128fc565b91505092915050565b6000602082840312156129a9576129a86121e8565b5b600082015167ffffffffffffffff8111156129c7576129c66121ed565b5b6129d384828501612965565b91505092915050565b60008160e01c9050919050565b600060033d1115612a085760046000803e612a056000516129dc565b90505b90565b600060443d10612a9857612a1d6121de565b60043d036004823e80513d602482011167ffffffffffffffff82111715612a45575050612a98565b808201805167ffffffffffffffff811115612a635750505050612a98565b80602083010160043d038501811115612a80575050505050612a98565b612a8f82602001850186612884565b82955050505050505b90565b600081519050919050565b60005b83811015612ac4578082015181840152602081019050612aa9565b60008484015250505050565b6000612adb82612a9b565b612ae58185612500565b9350612af5818560208601612aa6565b612afe81612873565b840191505092915050565b60006040820190508181036000830152612b228161253a565b90508181036020830152612b368184612ad0565b905092915050565b600081905092915050565b7f53776170206661696c65643a2000000000000000000000000000000000000000600082015250565b6000612b7f600d83612b3e565b9150612b8a82612b49565b600d82019050919050565b6000612ba082612a9b565b612baa8185612b3e565b9350612bba818560208601612aa6565b80840191505092915050565b6000612bd182612b72565b9150612bdd8284612b95565b915081905092915050565b60006020820190508181036000830152612c028184612ad0565b905092915050565b7f53776170206661696c65643a206c6f772d6c6576656c206572726f7220000000600082015250565b6000612c40601d83612b3e565b9150612c4b82612c0a565b601d82019050919050565b6000612c6182612c33565b9150612c6d8284612b95565b915081905092915050565b60006040820190508181036000830152612c918161253a565b9050612ca0602083018461239a565b92915050565b6000612cb182612250565b9150612cbc83612250565b9250828203905081811115612cd457612cd36126f8565b5b92915050565b600060208284031215612cf057612cef6121e8565b5b6000612cfe8482850161223b565b91505092915050565b7f737761704578616374496e707574506174680000000000000000000000000000600082015250565b6000612d3d601283612500565b9150612d4882612d07565b602082019050919050565b600060c0820190508181036000830152612d6c81612d30565b9050612d7b60208301886124d6565b612d8860408301876124d6565b612d95606083018661239a565b612da2608083018561239a565b612daf60a08301846124d6565b9695505050505050565b7f496e76616c696420706174680000000000000000000000000000000000000000600082015250565b6000612def600c83612500565b9150612dfa82612db9565b602082019050919050565b60006020820190508181036000830152612e1e81612de2565b9050919050565b6000819050919050565b6000612e3e602084018461223b565b905092915050565b6000602082019050919050565b6000612e5f8385612766565b9350612e6a82612e25565b8060005b85811015612ea357612e808284612e2f565b612e8a8882612796565b9750612e9583612e46565b925050600181019050612e6e565b5085925050509392505050565b600060a082019050612ec5600083018961239a565b612ed2602083018861239a565b8181036040830152612ee5818688612e53565b9050612ef460608301856124d6565b612f01608083018461239a565b979650505050505050565b60006040820190508181036000830152612f2581612d30565b90508181036020830152612f398184612ad0565b905092915050565b7f537761702070617468206661696c65643a200000000000000000000000000000600082015250565b6000612f77601283612b3e565b9150612f8282612f41565b601282019050919050565b6000612f9882612f6a565b9150612fa48284612b95565b915081905092915050565b7f537761702070617468206661696c65643a206c6f772d6c6576656c206572726f60008201527f7220000000000000000000000000000000000000000000000000000000000000602082015250565b600061300b602283612b3e565b915061301682612faf565b602282019050919050565b600061302c82612ffe565b91506130388284612b95565b915081905092915050565b6000604082019050818103600083015261305c81612d30565b905061306b602083018461239a565b92915050565b7f7377617045786163744f75747075745061746800000000000000000000000000600082015250565b60006130a7601383612500565b91506130b282613071565b602082019050919050565b600060c08201905081810360008301526130d68161309a565b90506130e560208301886124d6565b6130f260408301876124d6565b6130ff606083018661239a565b61310c608083018561239a565b61311960a08301846124d6565b9695505050505050565b6000604082019050818103600083015261313c8161309a565b905081810360208301526131508184612ad0565b905092915050565b600060408201905081810360008301526131718161309a565b9050613180602083018461239a565b92915050565b7f737761704578616374496e707574000000000000000000000000000000000000600082015250565b60006131bc600e83612500565b91506131c782613186565b602082019050919050565b600060c08201905081810360008301526131eb816131af565b90506131fa60208301886124d6565b61320760408301876124d6565b613214606083018661239a565b613221608083018561239a565b61322e60a08301846124d6565b9695505050505050565b60006040820190508181036000830152613251816131af565b905081810360208301526132658184612ad0565b905092915050565b60006040820190508181036000830152613286816131af565b9050613295602083018461239a565b92915050565b60006060820190506132b060008301866124d6565b6132bd602083018561239a565b6132ca604083018461239a565b949350505050565b60006132dd82612250565b91506132e883612250565b92508282026132f681612250565b9150828204841483151761330d5761330c6126f8565b5b5092915050565b600060408201905061332960008301856124d6565b613336602083018461239a565b9392505050565b6000819050919050565b6000819050919050565b600061336c6133676133628461333d565b613347565b612250565b9050919050565b61337c81613351565b82525050565b600060408201905061339760008301856124d6565b6133a46020830184613373565b939250505056fea2646970667358221220ba151676f8b78d7edfc9ac6505c084c1730e6aa9f4fcc4a40386312fc9070e3164736f6c63430008160033",
  "linkReferences": {},
  "deployedLinkReferences": {}
}